:1000000000000120F56100001D6200001F62000079
:100010002162000023620000256200000000000051
:100020000000000000000000000000002762000047
:1000300029620000000000002B6200002D62000019
:100040002F620000C15D00007D26000051210000EC
:10005000F93100002F6200002F6200002F620000C3
:100060000D2A00002F6200002F6200002F620000A6
:100070002F6200002F6200002F6200002F6200003C
:100080002F620000B93800002F6200002F620000CC
:10009000295F00002F6200002F6200002F62000025
:1000A0002F6200002F6200002F6200002F6200000C
:1000B0002F6200002F62000000000000000000001E
:1000C0002F6200002F6200002F6200002F620000EC
:1000D0002F6200002F6200002F620000000000006D
:1000E0000000000000000000000000000000000010
:1000F0000000000000000000000000000000000000
:1001000000000000000000000000000000000000EF
:1001100000000000000000000000000000000000DF
:1004000010B5054C237833B9044B13B10448AFF34E
:1004100000800123237010BD340200200000000082
:100420002C760000084B10B51BB108490848AFF303
:1004300000800848036803B910BD074B002BFBD0B0
:10044000BDE81040184700BF00000000380200203F
:100450002C7600003002002000000000154B002B1D
:1004600008BF134B9D46A3F5803A00218B460F46EB
:100470001348144A121A00F065F80F4B002B00D0F5
:1004800098470E4B002B00D0984700200021040015
:100490000D000D48002802D00C48AFF3008000F09A
:1004A0002BF82000290003F0BFFC00F011F800BF7A
:1004B0000000080000000120000000000000000013
:1004C000340200203C360020000000000000000044
:1004D00008B5074B044613B10021AFF30080054B6C
:1004E0001868836A03B19847204600F033F800BFCC
:1004F000000000005C70000070B50E4B0E4CE41A5A
:10050000A41000251E46A54204D056F82530984771
:100510000135F8E706F096FD084C094BE41AA410E3
:1005200000251E46A54204D056F8253098470135CF
:10053000F8E770BD28020020280200202C020020CD
:100540002802002002440346934202D003F8011B14
:10055000FAE77047FEE700BF0378012B02D10122C2
:10056000014B1A70704700BF50030020002904DBC4
:10057000036819440160012070470020704700BFE4
:1005800010B402230DE0930040FA03F303F00F03CD
:10059000C2F10104092B01D9373300E030330B5588
:1005A00013465A1E002BEED15DF8044B704700BF76
:1005B00070B110B50346144608461B68064A4FF44E
:1005C000807106F031F901462046FFF7CFFF10BDDC
:1005D00000231360012070478070000008B50248B6
:1005E00001F076FF08BD00BF640000202DE9F04156
:1005F00007460C46104D0A460146284606F04CF8C0
:10060000E2B229460D4801F06FFF10B94FF0010822
:1006100001E04FF000080A26002522467919002043
:1006200003F086FD0544241A08B9013E01D0002CD0
:10063000F3D14046BDE8F081500200206400002064
:10064000F0B5C9B00E4617461D4600230793FFF7C5
:10065000C5FF002840F092800446079907AA08AB1E
:1006600019443046FFF7A4FF002800F089804E9B14
:10067000062B74D8DFE803F004131E2B3A4B5E0000
:10068000384606F02FF90546079BC218FF2A67D89F
:100690000246394608A8184405F0FEFF60E00798B6
:1006A0002B683A46C0F5807108AD284406F0BCF8C6
:1006B000054655E007982B686A6800923A46C0F5EF
:1006C000807108AD284406F0AFF8054648E0079869
:1006D0002B686A68A968019100923A46C0F580715A
:1006E00008AD284406F0A0F8054639E007982B68C5
:1006F0006A68A968ED680295019100923A46C0F5D2
:10070000807108AD284406F08FF8054628E0079868
:100710002B686A68A968EE682D69039502960191B5
:1007200000923A46C0F5807108AD284406F07CF886
:10073000054615E007982B686A680092A968EE687C
:100740002A6903926D690495029601913A46C0F5B3
:10075000807108AD284406F067F8054600E00025E2
:10076000294607A8FFF702FF079950B1B1F5807F2E
:1007700007D808A8FFF73AFF044602E0002400E08B
:100780000446204649B0F0BD2DE9F04FC5B01446EF
:100790001F46DDF83CB100230393519B0BEB03098B
:1007A0000D4611B14FF00A0A01E04FF0000AFFF7C1
:1007B00015FF00286FD1CFB9039903AA04AB1944E0
:1007C0002846FFF7F5FE002865D0204606F08AF897
:1007D000C22828BFC220054603982A46214604ABFA
:1007E000184405F059FF039B1D440395039C0AEB35
:1007F0000405313504AB1C441D44002303E02022D2
:1008000004F8012B01335345F9D300262CE04F4562
:1008100007D3202323706370A3702B70013503343A
:1008200021E05F4503D24E9B13F8078004E0CBEB39
:100830000703509A12F8038021464046FFF7A0FEB6
:10084000E31C01932023A3706C1C05F001FF4044BE
:10085000437813F0970F01D14FF02E0885F80080F0
:1008600001372546019C01360F2ED0D90D232B7060
:100870000A236B7020232370039951444331039161
:1008800004A8FFF7B3FE30B1FFF7A8FE18B90023A4
:1008900003934F45AAD3384645B0BDE8F08F00BF5B
:1008A00070B588B01A4B1B781BB11A4B1B7883426A
:1008B0002AD0064603F074FC6C46174D0FCD0FC4CA
:1008C00095E80F0084E80F0000238DF8143006230C
:1008D00000930823019305230393072302934FF00A
:1008E000EB7306930D4801F04DFD0EB1002200E0C0
:1008F0000B4A6946094801F035FC38B90122044B1E
:100900001A70044B1E7001E00020FFE708B070BDB4
:10091000520300205103002060700000640000209A
:100920005905000000487047410600000048704724
:1009300089070000014B58619961704754030020FA
:1009400008B5FFF7F7FF08BD70B505460120FFF7B2
:10095000A7FF044648B9FFF7E5FF0646FFF7E6FFA5
:100960002A4601463046FFF7EBFF204670BD00BF28
:1009700030B583B0044B5D690024009423460A46D9
:100980002146A84703B030BD5403002010B584B001
:1009900004AB43F8042D044A5469012200920A462C
:1009A0000021A04704B010BD5403002000B585B05D
:1009B0000021ADF804100291039001AA44F2010055
:1009C00000F004F805B05DF804FB00BF08B5084965
:1009D0000120FFF7CDFFBFF34F8F0649CA6802F42D
:1009E000E062054B1343CB60BFF34F8F00BFFDE7C1
:1009F0008870000000ED00E00400FA0510B40378F0
:100A00009B09012B1CD00BB1022B25D1017AC27995
:100A1000930003EB911283799B0203F44063134428
:100A2000417901F00F01847A427A520002F0060205
:100A300002EBD41201338818073803FA00F00CE0F7
:100A4000437A027A03EB0222C3791B0403F47C137A
:100A5000D0180130800200E000205DF8044B7047A0
:100A6000424B93F82330002B7BD1F0B583B00124A7
:100A70003E4B83F8234047B2002F13DA022483F859
:100A80002340772483F82840002483F8294083F802
:100A90002A4083F82B4083F82C40FF2483F82D4014
:100AA000062300E000231C46304DEE1800F07F0EB8
:100AB00086F828E05E1C4FEA116E2E4486F828E086
:100AC0009E1CC1F3074E2E4486F828E0DE1CC1F3BD
:100AD000072E2E4486F828E004332B4483F8281090
:100AE000402802D0482804D001E0952102E0FF21EF
:100AF00000E08721631D1D48034483F82810022A63
:100B000002D0032A05D009E00522184B83F82420DF
:100B100008E00522154B83F8242003E00122134B43
:100B200083F82420002F03DB104B93F8243000E0DF
:100B300001230E33DBB20D4991F8580001228240A7
:100B40004FF0A040C0F80C25009301F138030622B5
:100B50002831074801F0EAFA28B1FFF727FF002003
:100B600002E011207047002003B0F0BD70030020A8
:100B7000A0700000F0B583B0054616461F46894BAD
:100B8000DB8B40F2B912934200F0A8800C46B3F51B
:100B9000DD7F05D26BB140F2A71293426FD0F3E034
:100BA000B3F5E07F00F0BF80B3F5E67F00F0E280B0
:100BB000EAE07C4B9A8ADA82B9E07A4B00221A8406
:100BC000FF2183F828101A83032283F823205AE098
:100BD000744A138C01339BB2138444F6206293420F
:100BE00008D90220387000226E4BDA83D8E0013534
:100BF000013CE4B214B12B78FF2BF8D024B32B784E
:100C0000FE2B1AD10135013CE4B20422654B83F876
:100C10002320A2B2B24228BF3246002304E0614939
:100C2000C968E85CC854013311469342F7D35D4B61
:100C30001A83DA681144D96025E005233B7000224D
:100C4000584BDA830220ABE0564991F85830012224
:100C500002FA03F34FF0A040C0F80C3510230093C4
:100C600001F138032831504801F060FA08B1FFF76C
:100C70009DFE40F2A7124B4BDA83002300E00123D4
:100C8000002B00F08680474B93F82330032B9FD036
:100C900027E0F31A9CB2F02C00D9F0244149E3B2CA
:100CA00091F85800012202FA00F04FF0A04ECEF861
:100CB0000C050093CB6828313B4801F037FA08B1A6
:100CC000FFF774FE374BDA682244DA601A8B14445B
:100CD0001C8340F2B912DA83002300E00123002BC9
:100CE00059D0304B1B8BB342D3D32E49CB8A013B17
:100CF000CB8291F85830012202FA03F34FF0A04062
:100D0000C0F80C350223009301F13803283126483E
:100D100001F00CFA08B1FFF749FE4FF4E072214BE5
:100D2000DA83002300E001230024002B35D01D4B83
:100D3000DB8A002B7FF441AF1A49FF2381F828306A
:100D400091F85830012202FA03F34FF0A040C0F8A6
:100D50000C350223009301F138032831124801F0C9
:100D6000E5F908B1FFF722FE4FF4E6720D4BDA8386
:100D7000002300E0012393B10A4A002382F82330C4
:100D80003B70D38302200BE00022064BDA83032062
:100D900006E0012004E0012002E0012000E0012043
:100DA00003B0F0BD70030020A07000002DE9F041F9
:100DB00082B004460F4616460578427883781B04B5
:100DC00043EA0263C27843EA0223027943EA020853
:100DD000B44B9B8BB3F5067F00F0CB8015D840F267
:100DE000F31293424DD0B3F5FA7F04D24BB3B3F56F
:100DF000F87F34D0A1E140F2F91293425ED040F284
:100E00000622934200F08A8097E140F24122934209
:100E100000F03A810AD840F22D22934200F0EA8095
:100E200040F23322934200F0048186E140F24B22EB
:100E3000934200F04C8140F25122934200F05D81D8
:100E40007BE1012200214020FFF70AFE08B1FFF7F5
:100E5000ADFD4FF4F872934B9A83002300E0012319
:100E6000002B00F06F81012200214020FFF7F8FDE8
:100E700008B1FFF79BFD40F2F3128A4B9A830023DF
:100E800000E00123002B00F05F8135F0030306D062
:100E9000042333700022834B9A83022065E10322EE
:100EA0004FF4D5714820FFF7DBFD08B1FFF77EFD59
:100EB00040F2F9127B4B9A83002300E00123002BC0
:100EC00000F0448115F0040F0FD1764B9A7A03217C
:100ED00061F302029A7235F0030306D004233370E3
:100EE0000022704B9A8302203FE16E4B00221A844D
:100EF0009B7A03F00703032B02D14FF0804100E0FF
:100F000000210222E920FFF7ABFD08B1FFF74EFDFB
:100F100040F20622634B9A83002300E00123002B5A
:100F200000F0168115F0040F35D05E4B9A7A01213E
:100F300061F302029A7205F0FB055A4A138C0133E1
:100F40009BB21384B3F5FA6F05D9022030700022EA
:100F5000544B9A8309E1022200214120FFF780FDD2
:100F600008B1FFF723FD4FF406724E4B9A8300231E
:100F700000E00123002B00F0ED8035F0030306D0E4
:100F8000042333700022474B9A830220EDE015F0D2
:100F9000010FD2D163E035F0030339D0042333705D
:100FA0000022404B9A830220DFE03E4A138C01333B
:100FB0009BB21384B3F5FA6F05D90220307000227A
:100FC000384B9A83D1E0374B9B7A03F00703032B0E
:100FD00002D14FF0804100E000210222E920FFF71A
:100FE0003FFD08B1FFF7E2FC40F22D222D4B9A8322
:100FF000002300E00123002B00F0AE8035F0030356
:1010000006D0042333700022264B9A830220ACE0E2
:1010100015F0010FC9D1022200217A20FFF720FD2F
:1010200008B1FFF7C3FC40F233221E4B9A83002322
:1010300000E00123002B00F0918035F0030306D07F
:10104000042333700022174B9A8302208DE018F09E
:10105000804F04D0134A937A43F008039372114BE4
:101060009B7A03F00703032B1ED001224FF400717B
:101070005020FFF7F5FC08B1FFF798FC40F2412241
:10108000084B9A83002300E00123002B68D035F041
:10109000030309D0042333700022024B9A830220F9
:1010A00063E000BF70030020314B03F14802DA60B7
:1010B00001229A8200214920FFF7D2FC08B1FFF7F4
:1010C00075FC40F24B222A4B9A83002300E0012357
:1010D000002B47D035F0030306D0042333700022E1
:1010E000234B9A83022040E00134013FFFB2204BA2
:1010F0000022DA8340F251229A830DF10703102275
:1011000039462046FFF736FD01282DD99DF80730D6
:101110002BB133700022164B9A83022025E0144C29
:1011200004F14800FFF76AFC60604FF4007323810C
:1011300000233370A383022017E000220C4B9A8314
:10114000032012E0012010E001200EE001200CE05D
:1011500001200AE0012008E0012006E0012004E06F
:10116000012002E0012000E0002002B0BDE8F08193
:101170007003002010B582B014462A4B9B8B40F2BE
:101180007A22934219D040F28222934238D0002B27
:101190003ED1037833F0030306D0042323700022EA
:1011A000204B9A8302203BE001300139C9B21D4B2C
:1011B0000022DA8340F27A229A830DF107034FF47A
:1011C0000072FFF7D7FC012827D99DF807302BB113
:1011D00023700022134B9A83022021E0114B9B8A3B
:1011E000012B0FD9012200214C20FFF739FC08B157
:1011F000FFF7DCFB40F282220A4B9A83002300E0D7
:10120000012363B100232370064A9383022007E081
:101210000022044B9A83032002E0002000E001201A
:1012200002B010BD70030020F0B583B004460D4637
:101230001646B44B9B8BB3F5317F00F0AB800BD8D7
:1012400040F2A32293423FD040F2B322934279D09E
:10125000002B40F0A88113E040F2EA22934200F014
:101260000E8104D8B3F5337F00F0BE809BE1B3F567
:10127000407F00F04B81B3F5447F00F07B8192E129
:10128000037833F0030306D00423337000229D4B10
:101290009A83022099E19B4B9B7A03F00703012B71
:1012A00021D0984B9B8A012B1DD90122954B19699E
:1012B0005920FFF7D5FB08B1FFF778FB40F2A322D6
:1012C000904B9A83002300E00123002B00F07081F3
:1012D000237833F0030306D0042333700022894BB4
:1012E0009A83022071E1874B9A8ADA82E0E0854B8B
:1012F00000221A83042283F82320FF2283F8282067
:101300009B8A012B01D9FC2300E0FE237D4981F853
:10131000293091F85820012393404FF0A042C2F8A1
:101320000C350222009201F138032831764800F092
:10133000FDFE08B1FFF73AFB40F2B322714B9A83EE
:10134000002300E001234BBB34E1C1F50077BFB2BD
:10135000F02F00D9F0276B4BD3F80CE093F858200E
:10136000012000FA02F24FF0A04CCCF80C250090BE
:101370003833FAB27144644800F0D8FE08B1FFF780
:1013800015FB604B1A8B17441F834FF431729A83FD
:10139000002300E00123002B00F00E81594B198B34
:1013A000B1F5007FD1D31946DB6803F50073CB603C
:1013B000032081F8230091F85830012202FA03F348
:1013C0004FF0A047C7F80C35009001F138032831E1
:1013D0004D4800F0ABFE08B1FFF7E8FA4FF4337266
:1013E000484B9A83002300E00123002B00F0E680A5
:1013F000444B93F83A3003F01F03052B11D00B2B0D
:1014000001D00D2B06D10523337000223D4B9A836A
:101410000220DAE00423337000223A4B9A83022040
:10142000D3E00022374B1A8439E0364A138C01335B
:101430009BB2138444F62062934205D90220307097
:101440000022304B9A83C0E02E4991F85830012297
:1014500002FA03F34FF0A040C0F80C3510230093BC
:1014600001F138032831284800F060FE08B1FFF789
:101470009DFA40F2EA22234B9A83002300E00123E5
:10148000002B00F09D80002307E0E25C22B10022E7
:101490001C4B83F8232002E00133AB42F5D3194BF8
:1014A00093F82330032BC0D0164AD38A013BD38252
:1014B000144BDB8A002B7FF41AAF124B9B8A012B53
:1014C0006BD91049FF2381F82830FD2381F829309A
:1014D00091F85820012393404FF0A042C2F80C35F8
:1014E0000323009301F1380302222831064800F05B
:1014F0001DFE08B1FFF75AFA4FF44072014B9A8370
:10150000002304E070030020A07000000123002BE2
:1015100058D02F4B00221A84032283F8232037E06F
:101520002B4A138C01339BB2138444F620629342FE
:1015300005D9022030700022254B9A8345E02449CA
:1015400091F85830012202FA03F34FF0A040C0F89E
:101550000C351023009301F1380328311D4800F0A9
:10156000E5FD08B1FFF722FA4FF44472184B9A8355
:10157000002300E001233BB3002307E0E25C22B13B
:101580000022134B83F8232002E00133AB42F5D352
:101590000F4B93F82330032BC2D0002333700C4A37
:1015A0009383022011E00022094B9A8303200CE070
:1015B00001200AE0012008E0012006E0012004E00B
:1015C000012002E0012000E0012003B0F0BD00BFD7
:1015D00070030020A07000001C4B93F8223013F021
:1015E000FF0F2AD0194B93F82230DBB2032B26D100
:1015F0003AB310B5154B042483F822409B7A13F0BC
:10160000080F03D14902114B196101E00F4B196119
:101610000E4BD8609A82DA8200219983012A01D97F
:10162000522000E051200122084B1969FFF718FAF7
:1016300048B1FFF7BBF9002010BD0820704711200A
:10164000704707207047002010BD00BF70030020C6
:10165000264B93F8223013F0FF0F3CD0234B93F826
:101660002230DBB2032B38D1002A38D010B51F4B03
:10167000052483F822409C7A14F0080F02D1490215
:10168000196101E0194B19611146184BD8609A8213
:10169000DA8200229A83012909D10122196958208E
:1016A000FFF7DEF9E8B1FFF781F9002010BD04F083
:1016B0000704012C06D101220C4B19695920FFF7B0
:1016C000CFF903E00122D720FFF7CAF958B1FFF79D
:1016D0006DF9002010BD08207047112070470720C9
:1016E0007047002010BD002010BD00BF7003002017
:1016F000394B93F8223013F0FF0F5ED100295ED0F2
:10170000C378FF2B5DD04278FF2A5CD00278FF2A95
:101710005BD08278FF2A5AD030B587B00C462E4A6B
:1017200082F858304FF0A04103F5E072032541F8EC
:101730002250012202FA03F3C1F8083583788DF8AC
:10174000083003788DF8093043788DF80A30FF238C
:101750008DF80B3007228DF80C208DF80D304FF0EE
:101760008063049300238DF814308DF815301B4AE4
:1017700002A91B4800F0CCFB08B1FFF717F9164986
:101780000C60012281F822208B7A03F0F8036FF3BA
:10179000C3038B72002381F82330FF2381F82830A4
:1017A0000A23009301F1380328310D4800F0BEFCF4
:1017B00078B1FFF7FBF800200CE008207047072005
:1017C00070470720704707207047072070470720A1
:1017D0007047002007B030BD7003002035180000AE
:1017E000A070000008B5114B93F8223013F0FF0FE2
:1017F00017D00E4B93F82230DBB2032B13D10C48D9
:1018000000F020FC094B93F8582002F5E07200200C
:101810004FF0A04141F8220083F8230083F8220012
:1018200008BD082008BD112008BD00BF70030020BE
:10183000A070000070B584B0C468017C8F4BDB8A57
:1018400043B98E4B93F85820012393404FF0A042A8
:10185000C2F80835894B93F82360731EDBB2012B65
:1018600000F284808B1FDBB2A51D426810784C28E3
:1018700007D133B1CB1FDBB2E51D02E0013BDBB288
:10188000013513B12A78FF2AF8D033B94C2803D197
:101890000133DBB2013D00E00025002D3BD1774A4A
:1018A00092F82220D2B2012A35D001238DF80930D6
:1018B000724B93F82230013B042B19D8DFE803F078
:1018C00003031810140000238DF8083003226B4B1B
:1018D00083F82220FFF786FF68B1FFF767F80AE078
:1018E00001238DF8083006E002238DF8083002E06D
:1018F0000320FFF75BF8614B93F8581001228A40F0
:101900004FF0A041C1F80825032283F822201B686C
:1019100002A89847B0E0022E22D10121574A82F84E
:1019200023102A7832F001021AD1544991F8243058
:101930000E33DBB291F85800012282404FF0A040F4
:10194000C0F80C25009301F1380306222E314C48D3
:1019500000F0ECFB002800F08F80FFF727F88BE009
:101960000021464A82F8231019462C4606238DF89A
:101970000F30424B93F82230013B042B79D8DFE83B
:1019800003F00309783355003C4B022283F82220F0
:1019900000229A830DF10F022046FFF707FA012873
:1019A0006AD900238DF80C309DF80F208DF80D209A
:1019B000324B032183F8221093F8581001238B40F7
:1019C0004FF0A041C1F8083522B1FFF70BFF08B175
:1019D000FEF7ECFF4FF080422A4BC3F82425274B3B
:1019E0001B6803A8984747E00DF10F022046FFF758
:1019F000C1FB012840D901228DF80C209DF80F3041
:101A00008DF80D301D4B032183F82210002199829F
:101A1000D98283F8231093F858108A404FF0A041E0
:101A2000C1F808251B6803A8984725E00DF10F02AF
:101A30002046FFF7F9FB01281ED902238DF80C3050
:101A40009DF80F308DF80D300C4B032283F82220C7
:101A5000002283F823209A82DA8293F85810012218
:101A60008A404FF0A041C1F808251B6803A8984799
:101A700002E00320FEF79AFF04B070BD700300205F
:101A8000A070000000300040084B93F82230DBB219
:101A9000032B07D0054B93F8223013F0FF0F03D12F
:101AA000002070470020704701207047700300201D
:101AB000044B93F82230DBB2022B01D90248704765
:101AC00000207047700300207403002011B1012929
:101AD00004D008E04AB10020107070473AB10430D9
:101AE00010600020704706207047002070470720D4
:101AF000704700BF8069704708B5FFF7C5FF002831
:101B0000FBD108BD70B584B086691E4B1B68984236
:101B10002FD10D460446FFF7B7FF60BB06F10C035B
:101B200095E8070083E80700AA882968A868FFF7F6
:101B30008FFD054648B9B3683BB9FFF7DDFF124B8F
:101B40001B7813F0FF0F00D00D25B368ABB1B5B112
:101B500002238DF8043001238DF8053006F10C03C3
:101B60000293B3690393B36801A9204698472846B6
:101B700006E0112004E0112002E0284600E028469B
:101B800004B070BDCC030020D003002070B584B039
:101B900086691E4B1B6898422FD10D460446FFF7FD
:101BA00073FF60BB06F10C0395E8070083E80700AC
:101BB000AA882968A868FFF70FFD054648B9B368E9
:101BC0003BB9FFF799FF124B1B7813F0FF0F00D0C2
:101BD0000D25B368ABB1B5B102238DF804300123F4
:101BE0008DF8053006F10C030293B3690393B368D3
:101BF00001A920469847284606E0112004E011205C
:101C000002E0284600E0284604B070BDCC03002066
:101C1000D003002070B584B08669154B1B689842CC
:101C20001ED10446FFF730FFE0B9FFF7DBFD0546A4
:101C300010B900220E4B1A60B368ABB101238DF8C6
:101C400004302B1C18BF01238DF8053000230293AC
:101C5000B3690393B36801A920469847284604E076
:101C6000112002E0112000E0284604B070BD00BF42
:101C7000CC030020F0B585B086690369B3F5007F19
:101C80002BD11A4B1B6853BB0F460446B261B1609F
:101C9000164B186016491430FFF72AFD054640B967
:101CA0003FB9FFF729FF134B1B7813F0FF0F00D04C
:101CB0000D25B5B100220D4B1A60A7B113468DF862
:101CC000042001228DF805200293B3690393B368C1
:101CD00001A920469847284606E0062004E0112086
:101CE00002E0284600E0284605B0F0BDCC03002005
:101CF000F91C0000D003002070B584B042782C4B52
:101D00001A702C4B1E68B4690378012B22D005464B
:101D100013B1022B32D045E0FFF7CAFE03682360FF
:101D20004FF400736360234B1B689B699B68002B17
:101D30003BD000228DF804206B789B1A18BF01233A
:101D40008DF805300292A3690393A36801A9304678
:101D500098472AE0A36843B302238DF80430003289
:101D600018BF01228DF8052004F10C030293A3692A
:101D70000393A36801A93046984716E0A368A3B16E
:101D800003238DF80430003218BF01228DF805209E
:101D900004F10C030293A3690393A36801A93046DD
:101DA000984702E00320FEF701FE04B070BD00BFBB
:101DB000D0030020CC030020002806DA00F00F0238
:101DC0004901C9B20C4B995407E04901C9B200F16D
:101DD000604303F5614383F80013420900F01F00DC
:101DE000012303FA00F0054B02F1600143F82100E2
:101DF00043F82200704700BF14ED00E000E100E06E
:101E000008B5827EFF2A05D0012393404FF0A042FF
:101E1000C2F8083500234376037150F8043B984715
:101E200008BD00BF30B482B0146824B104F060452E
:101E3000B5F1005F06D1956845B105F06045B5F193
:101E4000005F03D000234B76102348E01579C0F8DB
:101E50004445C0F848559468127BC0F83445C0F832
:101E600038250022C0F81821D0F818210192019AD3
:101E700013F0010F03D00122C0F8502502E0002228
:101E8000C0F8502513F0020F03D00122C0F84025FE
:101E900002E00022C0F8402513F0080F01D1012212
:101EA00002610A6872B9D0F81831002BFBD08A7E23
:101EB000FF2A13D0012393404FF0A042C2F8083507
:101EC00000230CE013F0040304D04023C0F80833CF
:101ED000002304E04022C0F8042300E00023184659
:101EE00002B030BC704700BFD0F8183173B100B5F4
:101EF00083B00022C0F81821D0F818310193019B5B
:101F00000846FFF77DFF03B05DF804FB704700BF94
:101F1000F8B544794A4B03EB44131B7E002B40F089
:101F20008C806301464DEA500B7B012B07D80D785E
:101F30000123AB404FF0A045C5F80C3506E00D7805
:101F40000123AB404FF0A045C5F808350B7803F5E9
:101F5000E07301264FF0A04545F823604B78FF2B36
:101F60000BD01D469E404FF0A047C7F80C6503F507
:101F7000E073032647F8236001E04FF0FF358B78CC
:101F8000FF2B09D01E4603F5E0734FF0000E4FF013
:101F9000A04747F823E001E04FF0FF36CF78FF2F4E
:101FA0000CD00123BB404FF0A047C7F80835CB78D1
:101FB00003F5E0734FF0030E47F823E090F805E0D7
:101FC000CF781F4B03EB4E139F7603680F78C3F84F
:101FD0000875C3F80C55C3F810658D68C3F824550F
:101FE0000E7B4D7B003518BF0125022E06D0032E37
:101FF00007D0012E07D145F0020504E045F00405A5
:1020000001E045F00605C3F854554D79C3F8C055B5
:1020100012B14025C3F804530725C3F8005522B177
:10202000097990F90400FFF7C7FE054B03EB441450
:102030000020607601232376F8BD0820F8BD00BF9C
:10204000D403002030B441794B01184AD5585DB112
:1020500090F904305A0903F01F03012404FA03F332
:102060002032134C44F822300268ADB14FF0FF33F8
:10207000C2F808330D4B03EB41135B7E13F0FF0FE7
:102080000AD001235361D2F80431002BFBD0074B57
:1020900003EB4113002058760020C2F80005034BE3
:1020A00003EB4111087630BC704700BFD403002019
:1020B00000E100E0F8B5164642791B4C04EB4214EF
:1020C000637E13F0FF0F2CD107460D4653011649CE
:1020D000CB5823B116F0140F01D101216176124BB8
:1020E00003EB421E0EF1080C95E80F008CE80F0080
:1020F0009EF81D3003F0FE036FF341038EF81D3090
:102100009EF81A20FF2A05D0012393404FF0A042E9
:10211000C2F80C3533462A4621463868FFF782FE5E
:10212000F8BD1120F8BD00BFD403002000B585B074
:10213000009102938DF804209DF818308DF80C3032
:1021400000226946FFF7B6FF05B05DF804FB00BF4B
:1021500008B502490248FFF7C7FE08BDD4030020B6
:102160000030004070B586B00479834B03EB441314
:10217000DB7E002B40F0FC804D7F7F4B03EB441354
:102180001D770D68B5F1FF3F0BD00123AB404FF039
:10219000A045C5F808350B6803F5E073032645F83C
:1021A00023604B68B3F1FF3F06D003F5E0730026D0
:1021B0004FF0A04545F8236005796F4B03EB4513BD
:1021C0001B7F002B36D003688D69C3F82455056842
:1021D0004E7D0B7D3343C5F86C3503680E684D6842
:1021E000C3F80C65C3F814550B7D012B58D18B68CF
:1021F000B3F1FF3F06D003F5E07300264FF0A04592
:1022000045F82360CD68B5F1FF3F0BD00123AB400B
:102210004FF0A045C5F80835CB6803F5E0730326F9
:1022200045F823600368CE688D68C3F80865C3F875
:10223000105535E003688D69C3F8245505684E7D57
:102240000B7D3343C5F86C3503680D684E68C3F8E1
:102250001465C3F80C550B7D012B21D18B68B3F1AC
:10226000FF3F06D003F5E07300264FF0A04545F888
:102270002360CD68B5F1FF3F0BD00123AB404FF099
:10228000A045C5F80835CB6803F5E073032645F88B
:1022900023600368CE688D68C3F80865C3F81055DD
:1022A000054635486301C61872600E69C650002A9B
:1022B00044D0097F2A7900EB42131B7F33B32A688D
:1022C0000023C2F81031D2F810210292029A2A6833
:1022D000C2F82031D2F820210392039A2A68C2F86A
:1022E0002431D2F824210492049A2A68C2F8443195
:1022F000D2F844310593059B2B68204AC3F8042388
:10230000286840F30730FFF757FD17E02B680022DD
:10231000C3F81C21D3F81C310093009B2B68C3F831
:102320004421D3F844310193019B2B68144AC3F82C
:102330000423286840F30730FFF73EFD2A790E4B4F
:1023400003EB42131B7F23B12B680822C3F800253F
:1023500003E02B680422C3F80025074B03EB441469
:102360000020E0752076A0750123E376A07600E0DA
:10237000082006B070BD00BFF40300201003020067
:1023800080000200F0B406794D4B03EB46131B7F2F
:1023900023B103680022C3F8002503E0036800228C
:1023A000C3F80025464B03EB46135B6843B3027941
:1023B000434B03EB42131B7F8BB10368414AC3F8C5
:1023C000082303681B0B5AB2520903F01F030121B3
:1023D00001FA03F320323C4941F8223010E003684F
:1023E0003A4AC3F8082303681B0B5AB2520903F098
:1023F0001F03012101FA03F32032334941F822304F
:1024000002792F4B03EB42131B7FA3B10368D3F870
:102410000C55D3F81445D3F80825D3F810154FF010
:10242000FF37C3F80C75C3F814750368C3F8087553
:10243000C3F8107513E00368D3F80C55D3F81445AE
:10244000D3F80825D3F810154FF0FF37C3F81475EB
:10245000C3F80C750368C3F80875C3F81075B5F1B7
:10246000FF3F06D005F5E07502204FF0A04343F88A
:102470002500B4F1FF3F06D004F5E07402204FF0D0
:10248000A04343F82400B1F1FF3F06D001F5E0710D
:1024900002204FF0A04343F82100B2F1FF3F06D0E5
:1024A00002F5E07202214FF0A04343F82210044BE2
:1024B00003EB46130022DA765A60F0BC704700BF87
:1024C000F40300201003020000E100E08402020097
:1024D0000279044B03EB4213987D003018BF0120B2
:1024E000704700BFF4030020F0B587B00579624B58
:1024F00003EB45131B7F2BB101F06043B3F1005F89
:1025000040F0B58017460E460446FFF7E1FF00286D
:1025100040F0AF80584B03EB4515AF75AE6000221D
:10252000AA82227903EB42131B7F002B32D0114683
:1025300023680022C3F82021D3F820310193019BA6
:102540002368C3F85821D3F858310293029B2268BC
:10255000494B03EB41139D68987DC2F84455C2F87E
:1025600048052268012090605B688BB92368D3F826
:102570002021D3F858310AB9002BF7D00BB900202D
:1025800000E00F203C4B03EB411100238B7571E001
:1025900000206FE0217922680023C2F81C31D2F8B4
:1025A0001C210492049A2268012090602568C5F8D5
:1025B0001C31D5F81C310593059B2F4B03EB4113C0
:1025C00098689A8A92B2865C9A8A92B2013292B2E2
:1025D0009A82C5F81C655B684BB300204AE022680C
:1025E000D2F81C313BB9244B03EB41139B8A9BB2BD
:1025F000B3F5807FF3D1204B03EB41139B8A9BB251
:10260000B3F5807F13D00023C2F81C31D2F81C31FF
:102610000393039B184D05EB4115AB8A9BB2C65C37
:10262000AB8A9BB201339BB2AB82C2F81C65124BE2
:1026300003EB41139A8A92B29B7D9A42CFD30E4B01
:1026400003EB41139B8A9BB2B3F5807F08D02368CC
:10265000D3F81C21002AFAD00122DA60002000E021
:102660000F20054B03EB411100238B7502E0102076
:1026700000E0112007B0F0BDF403002010B58EB0CB
:10268000914B1B7F002B00F0A380904BD3F824319B
:10269000EBB18E4B0022C3F82421D3F82411029110
:1026A000029902218DF82810D3F88014C3F8801401
:1026B0000D91D3F83C358DF83030834BD9680B91B0
:1026C000DA751A765A6819680AA890473EE07F4B77
:1026D000D3F81031002B39D07C4B0022C3F81021E5
:1026E000D3F810210392039AD3F83C35DBB2764A33
:1026F000D27D93422AD1744A127ECAB1724AD468FA
:102700007248D0F8001221F02001C0F80012117EAA
:10271000D1751169D1600021117601218DF8281041
:102720008DF830300B94536811680AA898470DE073
:10273000654A0021D175D16801208DF828008DF8F7
:1027400030300B91536811680AA898475F4BD3F853
:102750004431D3B15D4B0022C3F84421D3F8443156
:102760000193019B584BDB7D7BB1574BDA75574A80
:10277000D2F83C15DA6801208DF828008DF8301069
:102780000B925A6819680AA89047504BD3F8203129
:10279000002B00F012814D4B0022C3F82021D3F80A
:1027A00020310093009B484B9B7D002B00F005815E
:1027B000464BD3F84C358DF828208DF83030424BFD
:1027C00099680B919A755A6819680AA89047F4E0BD
:1027D0003E4BD3F8043313F4007F2CD03B4BD3F89B
:1027E000243143B3394B0022C3F82421D3F82421E8
:1027F0000992099A4FF40172C3F80823324B9B7E69
:1028000013B90122314B5A6002238DF828302F4A28
:10281000D2F88034C2F880340D932B4BDA7D8DF8DA
:102820003020DA680B920022DA751A765A68196835
:102830000AA8904766E0254BD3F8043313F0040F41
:1028400060D0224BD3F80831002B5BD01E4BDB7DD0
:1028500053B91E4B0022C3F80821D3F8082108926F
:10286000089AD3F8183512E018490023C1F8083146
:10287000D1F808310793079B134AD068537EDBB227
:10288000D1F81815C154537E0133DBB253760E4B89
:10289000DA7D5B7EDBB29A4234D10B4B1A7EBAB141
:1028A000D968587EDA751A69DA6000221A765A7683
:1028B00001228DF828208DF830000B915A68196894
:1028C0000AA890471EE000BFF4030020002000404B
:1028D0003B4B9B7E13B901223A4B5A604FF4017275
:1028E000384BC3F80823364B0022DA75597EDA6874
:1028F00001208DF828008DF830100B925A68196865
:102900000AA890472F4BD3F81C31002B31D02C4A0A
:10291000938A9BB2927D934214D22A490023C1F834
:102920001C31D1F81C310693069B254A9068938A86
:102930009BB2C05C938A9BB201339BB29382C1F875
:102940001C0516E01F4B0022C3F81C21D3F81C31D4
:102950000593059B1A4B9B7D5BB18DF828208DF864
:102960003030174B99680B919A755A6819680AA804
:102970009047144BD3F84431FBB1124B0022C3F8FB
:102980004421D3F844310493049B0D4B9B7E13B137
:1029900001220C4B1A600A4BDB7D73B1084B0022FD
:1029A000DA75597EDA6801208DF828008DF830102C
:1029B0000B925A6819680AA890470EB010BD00BF64
:1029C000F403002000200040F0B583B005460F4618
:1029D0001646002416E004F15000800080B24FF447
:1029E0008033A3402A585AB1D5F80423134207D0A4
:1029F00000232B502B580193019B3B687968984723
:102A00000134E4B2B442E6D303B0F0BD08B5042209
:102A100002490348FFF7D8FF08BD00BF1404002097
:102A200000800040034610F0010F01D1032001E0B7
:102A30004FF4024013F0020F01D048F2012013F0CE
:102A4000040F01D048F20220704700BF10B58AB0D1
:102A500003460C46D0F82421AAB10022C0F8242154
:102A6000D0F824210192019AD0F804215AB98A6839
:102A7000C0F8082302228A608A68C0F80423012271
:102A80000262426192E0D3F80421002A43D000227E
:102A9000C3F80421D3F804210292029A04F10C0233
:102AA00007CA0DF1280E0EE9070094F82320B2B1F1
:102AB000217B012903D1D3F83C25D2B202E0D3F81F
:102AC0004C25D2B28DF81E20022903D1D3F83C2523
:102AD000D2B202E0D3F84C25D2B28DF81F200022EA
:102AE000C3F86021D3F8601104910499C3F85C2104
:102AF000D3F85C210392039A94F8252012B194F83C
:102B00002320AAB30022C3F80022A2604FF0FF32B4
:102B1000C3F808232CE00022C3F84821D3F8482149
:102B20000592059A227B8AB904F10C0207CA0DF1BD
:102B3000280E0EE9070094F82520CAB9C3F8002230
:102B4000A2604FF0FF32C3F8082311E04FF4007287
:102B5000C3F8002240F20222A2604FF0FF32C3F815
:102B60000823A268C3F8042301229A601A621DE0B8
:102B7000D3F8C424C3F8C42412F0020F03D00123F5
:102B80008DF8183009E012F0040F03D002238DF8FD
:102B9000183002E000238DF8183094F825300BB976
:102BA00084F824302368616806A898470AB010BDED
:102BB000F0B502684FF0A04302F5E07240F20C61FC
:102BC00043F82210426802F5E07243F822100168CF
:102BD000012202FA01F1C3F8081541688A40C3F8DE
:102BE0000825026802F5E07240F20D6143F82210F8
:102BF000426802F5E07243F82210274B1A6804235A
:102C0000264900BF00BF00BF00BF00BF00BF00BF1C
:102C100000BF8A422FD000BF00BF00BF00BF00BF6F
:102C200000BF00BF00BF00BF00BF00BF00BF00BFAC
:102C300000BF00BF00BF00BF00BF00BF00BF00BF9C
:102C400000BF00BF00BF00BF00BF00BF00BF00BF8C
:102C500000BF00BF00BF00BF00BF00BF00BF00BF7C
:102C600000BF00BF00BF00BF00BF00BF00BF00BF6C
:102C700000BF00BF00BF013BC3D100219CE0426800
:102C80004FF0A043D3F81035D34013F0010F07D015
:102C9000002940F09480F0BDB80000200024F4002A
:102CA0000368012202FA03F34FF0A046C6F80C3580
:102CB000694D2F68694C04239E4600BF00BF00BFCA
:102CC00000BF00BF00BF00BF00BFA7422FD000BFA2
:102CD00000BF00BF00BF00BF00BF00BF00BF00BFFC
:102CE00000BF00BF00BF00BF00BF00BF00BF00BFEC
:102CF00000BF00BF00BF00BF00BF00BF00BF00BFDC
:102D000000BF00BF00BF00BF00BF00BF00BF00BFCB
:102D100000BF00BF00BF00BF00BF00BF00BF00BFBB
:102D200000BF00BF00BF00BF00BF00BF00BFBEF1BB
:102D3000010EC2D10768BA40C6F808252A6800BF4C
:102D400000BF00BF00BF00BF00BF00BF00BFA24266
:102D50002FD000BF00BF00BF00BF00BF00BF00BF3B
:102D600000BF00BF00BF00BF00BF00BF00BF00BF6B
:102D700000BF00BF00BF00BF00BF00BF00BF00BF5B
:102D800000BF00BF00BF00BF00BF00BF00BF00BF4B
:102D900000BF00BF00BF00BF00BF00BF00BF00BF3B
:102DA00000BF00BF00BF00BF00BF00BF00BF00BF2B
:102DB00000BF013BC3D1013108297FF760AF4268F2
:102DC000012303FA02F24FF0A041C1F80C25224A78
:102DD00014680422214D00BF00BF00BF00BF00BF28
:102DE00000BF00BF00BFAC422FD000BF00BF00BF7C
:102DF00000BF00BF00BF00BF00BF00BF00BF00BFDB
:102E000000BF00BF00BF00BF00BF00BF00BF00BFCA
:102E100000BF00BF00BF00BF00BF00BF00BF00BFBA
:102E200000BF00BF00BF00BF00BF00BF00BF00BFAA
:102E300000BF00BF00BF00BF00BF00BF00BF00BF9A
:102E400000BF00BF00BF00BF00BF013AC3D142684E
:102E50009340C1F80835F0BDB80000200024F4000C
:102E6000F8B5047904EB8406F500264E354495F850
:102E70002260002E44D10D460646224FA100214477
:102E8000C80039183A504B6000238B6081F8253018
:102E900081F82430AB7B81F827306B7B13B1284657
:102EA000FFF786FE2B684FF0A04203F5E07340F277
:102EB0000C6142F823106B6803F5E07342F82310AD
:102EC000336829686A68C3F80815C3F80C25AA682E
:102ED000C3F8242504EB8402D3000A4AD3582BB14B
:102EE0003068297B40F30730FEF766FF04EB84046B
:102EF000E300044A1344012283F822200020F8BD95
:102F00000820F8BD20040020037902680621C2F8D9
:102F1000001503EB8303DA00024B1A44022382F804
:102F20002230704720040020F0B589B003799B4F10
:102F300003EB8303DC0007EB040C06684B6803F02B
:102F40006043B3F1005F40F021810D4696464FF09B
:102F5000FF33C6F808339CF8243013F0FF0F05D078
:102F6000DCF80830C6F80433112014E112F0140F15
:102F70000CBF012300238CF824300CF10C0307C98B
:102F800083E80700CEF300138CF825306B78C6F881
:102F900088350023C6F80431D6F804210592059A35
:102FA000C6F82431D6F824310693069B1EF0010F93
:102FB00003D00123C6F8503502E00023C6F850358F
:102FC0001EF0020F03D00123C6F8403502E00023B3
:102FD000C6F840352B78032B00F2A080DFE803F021
:102FE00060894102AB6803F06043B3F1005F40F0D9
:102FF000CF804FF48073C6F800326A68AB78C6F8A9
:103000004425C6F848350023C6F85031D6F850217B
:103010000292029AC6F86031D6F860210392039AB0
:10302000C6F84831D6F848310493049B0123336233
:10303000B360D6F85031002BFBD00020C6F8500109
:10304000D6F850310193019BAA68EB78C6F8442565
:10305000C6F84835524BCCF808304FF4827208233A
:1030600060E06A68AB78C6F84425C6F84835AB68B6
:1030700003F06042B2F1005F40F08C80EA78C6F85D
:103080003435C6F838254FF48453C6F8003240F280
:103090000223CCF808304FF482720823002041E06C
:1030A0006A68AB78C6F84425C6F848351EF0200F8C
:1030B00010D04FF48073C6F80032394BCCF808308A
:1030C0000023C6F84831D6F848310093009B4FF4EE
:1030D000A47209E04FF40073C6F8003240F20223F4
:1030E000CCF808304FF482720123336208230020A9
:1030F00018E06A68AB78C6F83425C6F838354FF45E
:103100008053C6F8003240F20223CCF80830012385
:1031100033624FF482720023184603E04FF4827248
:10312000082307201EF0080F04D12978032901D0B5
:103130000121F1503B59D3B11EF0040F03D04FF4DD
:103140000073CCF80830DCF80830C6F8043322E00D
:10315000D6F824315BB10023C6F82431D6F82431E7
:103160000793079B0123336273614FF48272B35854
:10317000002BEDD0D6F8C434C6F8C43400228CF845
:10318000242043B11846FFF74DFC04E0102002E074
:10319000102000E0102009B0F0BD00BF2004002086
:1031A0000002040030B585B09DF820500024019441
:1031B00003948DF805108DF8063002920DB120228F
:1031C00000E0002201A9FFF7AFFE05B030BD00BF4F
:1031D00030B585B000240194039401258DF8045086
:1031E0008DF805108DF806300292224601A9FFF7EE
:1031F0009BFE05B030BD00BF08B503494FF040202D
:10320000FFF724FC08BD00BF200400200378BBB9F1
:1032100053B9027942B90B4B1B7813F0FF0F0FD152
:103220000122084B1A70704753B90379012B07D15B
:10323000054B1B7813F0FF0F02D10122024B1A70CD
:10324000704700BF49210020F92D002070B5037898
:10325000012B02D0022B03D070BD02F04DFF70BDD8
:10326000A14802F00FFF0028FAD0A04B1B7813F002
:10327000FF0F00F0A2809E4B1B68C72B21DC03EBE5
:10328000430099498A7912024C7904FA82F21211A8
:10329000984C24F81020451C0A7A1202CE7906FABE
:1032A00082F2121124F8152002308A7A1202497A29
:1032B00001FA82F2121124F8102001338C4A1360B3
:1032C00019E0894A93791B02517901FA83F31B11A2
:1032D00088490B80137A1B02D07900FA83F31B1103
:1032E0004B80937A1B02527A02FA83F31B118B8074
:1032F00001227F4B1A60804B1968C72937DCC1EB6C
:10330000C102794BDD7A9C7C7C4804EB052420F8D3
:103310001240551C1E7BDC7C04EB062420F8154073
:10332000951C5E7B1C7D04EB062420F81540D51C03
:103330009E7B5C7D04EB062420F81540151DDE7B8A
:103340009C7D04EB062420F81540551D1E7CDC7D79
:1033500004EB062420F8154006325C7C1B7E03EB50
:10336000042320F812300131634B196022E0604BD6
:103370001B6803EB43035C498A791202487900FA1F
:1033800082F212115B4820F813205C1C0A7A1202A8
:10339000CD7905FA82F2121120F8142002338A7ACC
:1033A0001202497A01FA82F2121120F81320012246
:1033B000514B1A6000224D4B1A70514B1B7813F081
:1033C000FF0F00F0D3804F4B1B68C72B21DC03EBB2
:1033D000430045498A7912024C7904FA82F21211AB
:1033E000494C24F81020451C0A7A1202CE7906FABC
:1033F00082F2121124F8152002308A7A1202497AD8
:1034000001FA82F2121124F8102001333D4A1360B0
:1034100019E0354A93791B02517901FA83F31B11A4
:1034200039490B80137A1B02D07900FA83F31B1100
:103430004B80937A1B02527A02FA83F31B118B8022
:103440000122304B1A60314B1B68C72B08DC304A15
:103450001168304A42F8231001332C4A136006E009
:103460002B4B1A682B4B1A600122284B1A602A4BEF
:103470001968C72954DCC1EBC1021B4BDD7A9C7C67
:10348000264804EB052420F81240551C1E7BDC7CEA
:1034900004EB062420F81540951C5E7B1C7D04EB94
:1034A000062420F81540D51C9E7B5C7D04EB062489
:1034B00020F81540151DDE7B9C7D04EB062420F8CA
:1034C0001540551D1E7CDC7D04EB062420F81540BC
:1034D00006325C7C1B7E03EB042320F812300131A2
:1034E0000D4B19603FE000BF24210020F82D002083
:1034F000D42D002078060020280B00202C0B002063
:103500002C300020D02D00206C2400204804002006
:103510000C2100204C210020F42D00201C1600203E
:10352000134B1B6803EB430312498A791202487953
:1035300000FA82F21211104820F813205C1C0A7A5B
:103540001202CD7905FA82F2121120F8142002330A
:103550008A7A1202497A01FA82F2121120F81320B3
:103560000122064B1A600022054B1A7070BD00BF85
:10357000D02D0020242100206C240020F42D0020D8
:103580002C3000202DE9F04FADF51F7D0446744925
:103590000320FDF7EDF933227249734801F046FE2E
:1035A000724B187020B172490320FDF7E1F9D3E0A6
:1035B000002C40F0AA804FF0000994E06322202103
:1035C00031A8FCF7BFFF00238DF82731694B53F872
:1035D00029302E9309EB4901674B33F91100009014
:1035E0004C1C33F914000290881C33F910500495D8
:1035F000C9EBC903614A32F91350069503F101087A
:1036000032F91850089503F1020C32F91C500A9552
:1036100003F1030E32F91E500C951F1D32F917509D
:103620000E955E1D32F9165010959D1D2F9532F99D
:1036300015201292524A32F91150149532F914A001
:1036400032F910B04F4A32F9133032F9188032F99A
:103650001CC032F91EE032F9177032F916602F9D46
:1036600032F91550484A32F9111032F9144032F942
:10367000102046482D902C922C222B922A9429928D
:10368000289127922695259224962392229721927B
:10369000CDF880E01F92CDF878C01D92CDF87080F3
:1036A0001B921A931992CDF860B01792CDF858A0DA
:1036B0001592139211920F920D920B92099207920A
:1036C00005920392019213462E9A314931A803F0D4
:1036D000DDF89DAB632231A9234801F097FE234B0F
:1036E000187009F10109B9F1C70F7FF767AF1F4BD8
:1036F0001B7823B127490320FDF73AF929E09D9A69
:1037000025490320FDF742F923E014B340F2A91242
:10371000224931A802F0C0FF0023CDF86D328DF8A8
:1037200071329DAB40F2AD1231A90F4801F06EFE2F
:103730000E4C207031A802F095FF237823B1154973
:103740000320FDF715F904E09D9A13490320FDF7C6
:103750001DF9054801F07EFF0DF51F7DBDE8F08FD6
:10376000B0720000D87200004C040020BC3500206C
:10377000E47200004C210020780600202C0B002071
:103780006C2400201C16002020290020407400001A
:10379000187300007C73000098730000C070000074
:1037A00070B50121204800F05DFE20490320FDF79F
:1037B000DFF80324012003E0002000F00FFD013CAE
:1037C0000CB10028F8D138B119490320FDF7D0F821
:1037D0000022184B1A7070BD174B5D69174E3046AA
:1037E000A84744684FF48013B3FBF4F43046A8476D
:1037F0000268B2FBF4F212490320FDF7C7F8114941
:103800000320FDF7B5F801220F49104801F0E2FC52
:103810000F4B187030B10F490320FDF7A9F80022B3
:10382000044B1A7070BD00BF98000020B8730000F0
:10383000E07300006C000020A870000074740000A9
:1038400008740000247400005C740000FC2D00204B
:10385000BC350020447400004FF080430022C3F8C0
:103860001825C3F8042101229A604FF08043D3F851
:103870000431002BF9D000214FF08043C3F804112C
:1038800003F5883301225A60084801600848017036
:103890001F21C3F80815C3F84423C3F804234FF4C9
:1038A0000030044908601A60704700BF0C210020F6
:1038B0001C29002000E100E00B4BD3F8003193B14C
:1038C0000022094BC3F80021084A13780133DBB208
:1038D0001370292B04D8064A13680133136070470C
:1038E0000022024B1A707047001001401C29002072
:1038F0000C21002000B583B000220A4B1A7001236E
:1039000000930B46024619210748FFF74BFC08B10C
:10391000FDF74CF8034B1B7813F0FF0FFAD003B000
:103920005DF804FB49210020A872000010B582B0A8
:103930000C4602AB03F8010D01211846FFF7DAFF30
:103940000022094B1A702346084A19210848FFF73C
:103950003FFC08B1FDF72AF8034B1B7813F0FF0F6B
:10396000FAD0024802B010BDF92D0020102100202D
:10397000A872000010B582B0164B1B88ADF8043059
:10398000022101A8FFF7B6FF20238DF8043077232A
:103990008DF80530022101A8FFF7ACFF00248DF857
:1039A00004408DF80540022101A8FFF7A3FF012381
:1039B0008DF804308DF80540022101A8FFF79AFF29
:1039C00002218DF804108DF8054001A8FFF792FF41
:1039D00002B010BD7072000070B50621A820FFF77C
:1039E000A5FF1F4B1B68C72B20DC03EB430142786C
:1039F0001202047804FA82F212111A4C24F81120EF
:103A00004D1CC2781202867806FA82F2121124F84E
:103A10001520023142791202057905FA82F212115B
:103A200024F8112001330E4A136070BD43781B0245
:103A3000027802FA83F31B110A4A1380C3781B022F
:103A4000817801FA83F31B11538043791B020179BA
:103A500001FA83F31B1193800122014B1A6070BDA0
:103A6000740600202029002030B587B060B32E4CAA
:103A7000B4F8B431ADF80430022101A8FFF73AFFE1
:103A800021238DF8083000258DF80950022102A865
:103A9000FFF730FFB4F8B831ADF80C30022103A8BD
:103AA000FFF728FF3A238DF810308DF811500221CE
:103AB00004A8FFF71FFFB4F8BC31ADF814300221A1
:103AC00005A8FFF717FF2CE0184B1B88ADF8043052
:103AD000022101A8FFF70EFF38238DF808300024DB
:103AE0008DF80940022102A8FFF704FF21238DF879
:103AF0000C308DF80D40022103A8FFF7FBFE3A239E
:103B00008DF810308DF81140022104A8FFF7F2FE65
:103B100039238DF814308DF81540022105A8FFF7E0
:103B2000E9FE07B030BD00BFC07000007472000035
:103B300000B585B000230393112200921022019258
:103B40004FF0CC72029202228DF80C20274A69466F
:103B50002748FFF785F908B1FCF728FF2448FFF74D
:103B6000D3F9244B1A6842F21073234900BF00BFF7
:103B700000BF00BF00BF00BF00BF00BF8A422FD000
:103B800000BF00BF00BF00BF00BF00BF00BF00BF3D
:103B900000BF00BF00BF00BF00BF00BF00BF00BF2D
:103BA00000BF00BF00BF00BF00BF00BF00BF00BF1D
:103BB00000BF00BF00BF00BF00BF00BF00BF00BF0D
:103BC00000BF00BF00BF00BF00BF00BF00BF00BFFD
:103BD00000BF00BF00BF00BF00BF00BF00BF00BFED
:103BE000013BC3D105B05DF804FB00BF0D320000FE
:103BF000A8720000B80000200024F4004FF08043B9
:103C00000022C3F8002101221A604FF08043D3F84C
:103C10000031002BF9D0704730B58BB0214CD4F86F
:103C2000C0010990D4F8C401089006ABD4F8C801CB
:103C3000D4F8CC1103C36D4604F5E8740FCC0FC55E
:103C400094E8030085E803000623ADF80E30002356
:103C50008DF8143001228DF800208DF80820124ACA
:103C600001928DF8013004238DF80A30684602F085
:103C700007F990B909A802F055FA78B908A802F036
:103C800069FA60B9082106A802F07CFA40B9074B2E
:103C900020221A705870587102E001E000E0FFE73E
:103CA0000BB030BDC07000004D320000700000202D
:103CB00010B504462A48FF2343710023C37002F065
:103CC00065F9002847D1002C46D0264B1A684FF4DE
:103CD000FA63254900BF00BF00BF00BF00BF00BF9F
:103CE00000BF00BF8A422FD000BF00BF00BF00BF8F
:103CF00000BF00BF00BF00BF00BF00BF00BF00BFCC
:103D000000BF00BF00BF00BF00BF00BF00BF00BFBB
:103D100000BF00BF00BF00BF00BF00BF00BF00BFAB
:103D200000BF00BF00BF00BF00BF00BF00BF00BF9B
:103D300000BF00BF00BF00BF00BF00BF00BF00BF8B
:103D400000BF00BF00BF00BF013BC3D1642002F031
:103D50003FFA18B110BD10BD002010BD002010BDED
:103D600070000020B80000200024F40010B50446C4
:103D70002A48EE2343710023C37002F007F900289C
:103D800046D1002C45D0264B1A684FF4FA632549DA
:103D900000BF00BF00BF00BF00BF00BF00BF00BF2B
:103DA0008A422FD000BF00BF00BF00BF00BF00BFCE
:103DB00000BF00BF00BF00BF00BF00BF00BF00BF0B
:103DC00000BF00BF00BF00BF00BF00BF00BF00BFFB
:103DD00000BF00BF00BF00BF00BF00BF00BF00BFEB
:103DE00000BF00BF00BF00BF00BF00BF00BF00BFDB
:103DF00000BF00BF00BF00BF00BF00BF00BF00BFCB
:103E000000BF00BF013BC3D102F0E2F918B110BD01
:103E100010BD002010BD002010BD00BF70000020AC
:103E2000B80000200024F400F8B50020FCF78CFD59
:103E300008B1FCF7BBFDFFF7E1FEFFF7EDFE08B1AF
:103E4000FCF7B4FDFFF774FE0120FFF70DFEFFF74E
:103E500091FDFFF7A5FC654B1B7813F0FF0F02D017
:103E60000120FFF78FFBFFF7F7FC002002F0B0F90D
:103E7000002840F0BA800120FFF71AFF0020FFF76A
:103E800017FFFFF7A9FD5A4F3A685A4E4FF4FA64EC
:103E9000234600BF00BF00BF00BF00BF00BF00BF80
:103EA00000BFB2422FD000BF00BF00BF00BF00BFA5
:103EB00000BF00BF00BF00BF00BF00BF00BF00BF0A
:103EC00000BF00BF00BF00BF00BF00BF00BF00BFFA
:103ED00000BF00BF00BF00BF00BF00BF00BF00BFEA
:103EE00000BF00BF00BF00BF00BF00BF00BF00BFDA
:103EF00000BF00BF00BF00BF00BF00BF00BF00BFCA
:103F000000BF00BF00BF013BC3D101253A4B1D706C
:103F10002846FFF72BFF394B1D700020FFF726FFC7
:103F20003B6800BF00BF00BF00BF00BF00BF00BFB5
:103F300000BFB3422FD000BF00BF00BF00BF00BF13
:103F400000BF00BF00BF00BF00BF00BF00BF00BF79
:103F500000BF00BF00BF00BF00BF00BF00BF00BF69
:103F600000BF00BF00BF00BF00BF00BF00BF00BF59
:103F700000BF00BF00BF00BF00BF00BF00BF00BF49
:103F800000BF00BF00BF00BF00BF00BF00BF00BF39
:103F900000BF00BF00BF013CC3D1144B1B7813F01E
:103FA000FF0F3FF468AF164B1B68C72B7FF463AF5E
:103FB000144B1B68C72B7FF45EAF134B1B68C72BDA
:103FC0007FF459AF114B1B68C72B7FF454AF104BD4
:103FD0001B68C72B7FF44FAF0E4B1B68C72B7FF4BA
:103FE0004AAF0020FFF7CEFA45E7F8BD6C0000208D
:103FF000B80000200024F400F82D00202C30002010
:10400000D42D0020280B0020D02D0020F42D0020DE
:1040100074060020480400200369C268934204D853
:104020008068801A0344581E70479B1A581E7047B8
:104030002DE9F041064688461446C7688568ED1BA1
:10404000954207D94068384402F026FB3C44F460AE
:10405000BDE8F08140682A46384402F01DFB641B2D
:10406000224608EB0501706802F016FBF460BDE81B
:10407000F08100BF2DE9F843064688461746C5681B
:104080004FF000093469A54202D2641B013C03E0F1
:10409000B368641B1C44013CB3685B1B9C4228BF93
:1040A0001C46BC4228BF3C46706822464146284414
:1040B00002F0F2FAA144A0443F1B2544B3689D429C
:1040C00000D10025F560002FDCD14846BDE8F8831B
:1040D00010B5114C022323616361104AA261104B99
:1040E000E3614FF4007323620023A3626362E3621F
:1040F000A2640C4AE26410222265A3656365E3654D
:104100000949E01D02F0E6FB0849204602F0E2FB07
:104110002023A37110BD00BFC035002090740000A3
:1041200040300020303000209C740000A07400005B
:1041300070B50E461546431C03EB4303DC00174ADB
:10414000144400EB4000C3001344DB6A012B0ED083
:1041500013B1022B17D01CE02046FFF75DFFA842E9
:1041600019D32A4631462046FFF762FF14E0204665
:10417000FFF752FF854228BF05462A4631462046B2
:10418000FFF756FF08E02A462046FFF773FF054673
:1041900002E0002500E00025284670BDC035002063
:1041A00008B5034B1B780BB9FFF792FF08BD00BFA2
:1041B000C03500208B680A78032A0AD8DBB203EBEB
:1041C00043039A00034B1B6813444A781A72002277
:1041D0009A7270474432002020BF70471E4B1B78F4
:1041E000834234D970B500EB40039C0025461B4B3D
:1041F0001B6819191B59002B2BD04A7A12F0010F9A
:1042000002D1487AC0B270BD4A680AB9144A4A60FD
:1042100002460120887219680E6812491846B04794
:1042200010B10EE05B6898470C4B1B682B449A7AE0
:1042300012F0FF0FF6D11A7A1AB95A7A02F0FE027A
:104240005A72064B1B681C44607AC0B270BD0320D2
:104250007047032070BD00BF403200204432002070
:10426000D9410000B5410000074B1B78834208D9B3
:1042700000EB40008300054A12681344587AC0B22C
:1042800070470120704700BF4032002044320020B8
:10429000F0B585B0214C2478844233D9002B33D03B
:1042A00000EB4000840025461D48006807190659A8
:1042B00066B37E7A16F0010F2AD116460192029358
:1042C00003910123BB72045923685B692046984718
:1042D00003689E4205D223689B6801A9204698473F
:1042E00000E0072018B1012015E05B6898470C4BEF
:1042F0001B682B449A7A12F0FF0FF6D11B7A4BB948
:10430000002008E0042006E0042004E0032002E08E
:10431000032000E0012005B0F0BD00BF40320020C6
:1043200044320020F0B585B0244C2478844238D93A
:10433000002B38D000EB4000840025462048006860
:1043400006190759002F30D0777A17F0010F2ED1B8
:10435000777A17F0040F2CD117460192029303913C
:104360000123B372045923685B69204698470368A8
:104370009F4205D22368DB6801A92046984700E0E8
:10438000072018B1012017E05B6898470C4B1B68A9
:104390002B449A7A12F0FF0FF6D11B7A5BB90020FA
:1043A0000AE0042008E0042006E0032004E00320E3
:1043B00002E0022000E0012005B0F0BD4032002004
:1043C00044320020254B1B7883423DD930B583B061
:1043D0001546044601291BD011B1022926D035E02B
:1043E00001238DF8073004EB440293001C4A126845
:1043F000D05803681B690DF107020021984708B1E6
:10440000112803D19DF80730002BECD1002022E0C9
:1044100000EB4004A300124A1268D058C0B10368F0
:104420005B69984703682B60002014E000EB4004B0
:10443000A3000B4A1268D05860B103685B699847C3
:1044400043682B80002006E004207047012002E032
:10445000032000E0032003B030BD00BF4032002045
:1044600044320020024B1860024B1970704700BFA5
:1044700044320020403200204278007840EA022096
:10448000704700BFC278837843EA0222437843EA48
:104490000223007840EA0320704700BF0170090A38
:1044A000417070470170C1F307234370C1F30743A4
:1044B0008370090EC170704713462AB10A780270E2
:1044C00001300131013BF9D1704700BF017001306B
:1044D000013AFBD1704700BF30B4451C037808781F
:1044E0001B1A013A04D04C1C28462146002BF4D05C
:1044F000184630BC704700BF00E0013003780BB1B4
:104500008B42FAD11846704702394369023B9942FF
:1045100004D24389806A01FB030070470020704782
:1045200070B506460D4601F11A00FFF7A5FF0446D7
:104530003378032B05D105F11400FFF79DFF44EA02
:10454000004070BD70B506460C46154691B204F1A8
:104550001A00FFF7A3FF3378032B04D1290C04F1D1
:104560001400FFF79BFF70BD2DE9F84F8246894686
:104570000F6800F1200B0B2220215846FFF7A6FF01
:1045800000252B464FF008085E1CFC5C202C4AD905
:104590002F2C03D05C2C07D100E00136BB5D2F2B04
:1045A000FBD05C2BF9D03EE02E2C01D0A84509D8D9
:1045B000B8F10B0F4CD02E2C4DD1334608254FF0BF
:1045C0000B08E1E704F17F02D2B21E2A04D904F1FC
:1045D0002002D2B21C2A15D80233B95DA1F14002E3
:1045E000D2B23E2A03D981F080027C2A36D808F163
:1045F000FF32954235D26A1C0BF805400BF80210C9
:104600000235C1E721461B48FFF776FF60BBA4F1E6
:104610006103DBB2192B01D8203CE4B20BF8054052
:1046200001353346B0E73E44C9F80060FDB19AF861
:104630002030E52B02D105238AF82030202C01D828
:10464000042300E000238AF82B300020BDE8F88F17
:104650000620BDE8F88F0620BDE8F88F0620BDE8EB
:10466000F88F0620BDE8F88F0620BDE8F88F0620F9
:10467000BDE8F88FA8740000016821B94FF0FF333E
:1046800016E0013200E00A461378202B01D93A2BBC
:10469000F7D13A2B0BD110B44C1C0B78303B092BC3
:1046A00008D8A24209D15BB9013202600AE00023B6
:1046B000184670474FF0FF3304E04FF0FF3301E03E
:1046C0004FF0FF3318465DF8044B704738B50C4681
:1046D00070B1054603685BB11A784AB1D9888288FF
:1046E000914205D15878FFF7BFFD10F0010F03D0BC
:1046F00000232360092038BD2B682360002038BDCB
:10470000F8B5C37803B30446C66A00F13007012345
:10471000324639464078FFF705FEB8B90023E3700A
:10472000236AF31AA269934212D2A57808E0A3691A
:104730001E440123324639466078FFF7F3FD013D00
:10474000012DF4D80020F8BD0020F8BD0120F8BDEF
:104750000020F8BD70B5C36A8B4212D004460D46E6
:10476000FFF7CEFF064668B901232A4604F130015F
:104770006078FFF78DFD10B101264FF0FF35E5623F
:1047800000E00026304670BD10B504460023C3701B
:104790004FF0FF33C362FFF7DDFF18BB04F22E209A
:1047A000FFF76AFE4AF6552398421DD194F830303F
:1047B000E92B05D0236B03F0FF130F4A934215D169
:1047C00004F16600FFF75EFE20F07F400B4B98423D
:1047D0000ED004F18200FFF755FE094B984209D133
:1047E000002010BD042010BD032010BD022010BD0C
:1047F000002010BD022010BDEB0090004641540087
:10480000464154332DE9F04784B00E461746002345
:104810000B60FFF731FF051EC0F22C81AA4B53F845
:104820002540002C00F02881346007F0FE07237833
:1048300073B16078FFF718FD10F0010F08D1002F59
:1048400000F01C8110F0040F40F01A81002038E1C4
:1048500000232370E8B26070FFF7C0FC10F0010F76
:1048600040F010811FB110F0040F40F00D810021C5
:104870002046FFF789FF022815D0002628E004F122
:1048800030002B0103F5DF73184403791BB10830A6
:10489000FFF7F8FD00E0002004AB03EB850343F8CD
:1048A000100C013500E00025032DE8D9002504ABEC
:1048B00003EB850353F8106C26B131462046FFF711
:1048C00063FF00E00320012802D90135032DEED952
:1048D000042800F0DB80012800F2DA8004F13B00BC
:1048E000FFF7CAFDB0F5007F40F0D48004F1460028
:1048F000FFF7C2FD804620B904F15400FFF7C2FD66
:104900008046C4F8188094F8409084F8029009F129
:10491000FF33DBB2012B00F2BF8008FB09F994F8EA
:104920003D506581002D00F0B9806B1E1D4240F0A6
:10493000B78004F14100FFF79FFD8246208110F00F
:104940000F0F40F0AF8004F14300FFF795FD0746DD
:1049500020B904F15000FFF795FD074604F13E0031
:10496000FFF78AFD0346002800F09E8009EB000255
:1049700002EB1A129742C0F09980BF1AB7FBF5F507
:10498000002D00F095804FF6F5718D4201D9032777
:1049900000E0022740F6F5718D4200D8012702356C
:1049A0006561E661334423623244A262032F0FD172
:1049B00004F15A00FFF760FD00287BD1BAF1000F27
:1049C0007AD104F15C00FFF75DFD6062AD000EE09E
:1049D000BAF1000F72D04B446362022F01D16D0017
:1049E00005E005EB450305F0010505EB530505F270
:1049F000FF15B8EB552F63D34FF0FF332361E3600E
:104A000080232371032F2CD104F16000FFF734FDC4
:104A1000012826D1711C2046FFF79CFE08BB00230D
:104A2000237104F22E20FFF727FD4AF65523984202
:104A300017D104F13000FFF725FD244B984210D127
:104A400004F50570FFF71EFD214B984209D104F5CE
:104A50000670FFF717FD206104F50770FFF712FDE0
:104A6000E06027701B4A138801339BB21380E380F8
:104A7000002026E00B2024E00C2022E0002020E093
:104A80000A201EE003201CE00A201AE0012018E0A2
:104A90000D2016E00D2014E00D2012E00D2010E096
:104AA0000D200EE00D200CE00D200AE00D2008E0A6
:104AB0000D2006E00D2004E00D2002E00D2000E0B6
:104AC0000D2004B0BDE8F0874C3200205252614105
:104AD00072724161483200202DE9F047012977D9EF
:104AE0004369994276D217460C4606460378022B54
:104AF00040D0032B51D0012B6ED101EB5108016A3C
:104B000001EB5821FFF726FE0546002865D106F186
:104B1000300A08F10109C8F3080814F0010409D0AB
:104B20001AF808203B0103F47F6302F00F021343DD
:104B3000DBB200E0FBB20AF808300123F370316AFF
:104B400001EB59213046FFF705FE0546002844D108
:104B5000C9F3080914B1C7F3071206E01AF80930BF
:104B600023F00F03C7F303221A430AF80920012395
:104B7000F37032E0016A01EB1421FFF7EBFD05460B
:104B800058BB06F13000630003F4FF73B9B2184458
:104B9000FFF784FC0123F3701FE0016A01EBD411DD
:104BA000FFF7D8FD0546C0B927F0704706F130037E
:104BB000A10001F4FE715C182046FFF763FC00F0D1
:104BC000704139432046FFF76DFC0123F37004E088
:104BD000022502E0022500E002252846BDE8F08714
:104BE000F8B50668012953D97369994252D20C4627
:104BF0003378022B2AD0032B38D0012B4CD101EB78
:104C00005105316A01EB55213046FFF7A3FD00281D
:104C100044D16F1CC5F30805354495F83050316A0E
:104C200001EB57213046FFF795FD002839D1C7F336
:104C30000803334493F8300045EA002014F0010FD4
:104C400001D00009F8BDC0F30B00F8BD316A01EBDB
:104C500014213046FFF77EFD30BB06F130006100C5
:104C600001F4FF710844FFF707FCF8BD316A01EB5E
:104C7000D4113046FFF76EFDC8B906F13003A1002C
:104C800001F4FE701844FFF7FDFB20F07040F8BD02
:104C90000120F8BD0120F8BD0120F8BD4FF0FF3024
:104CA000F8BD4FF0FF30F8BD4FF0FF30F8BD4FF0CA
:104CB000FF30F8BD2DE9F0410768B1F5001F3DD286
:104CC00006460C4611F01F0F3BD1316185681DB9B6
:104CD0003B78022B00D97D6A35B93B89B3EB541F71
:104CE00032D97B6AB3611AE0B7F80A804FEA4828E4
:104CF0000EE029463046FFF773FF0546B0F1FF3F4F
:104D000025D0012826D97B69984226D2C8EB040415
:104D10004445EED229463846FFF7F6FBB06175618F
:104D2000B369EBB103EB5423B36107F13003C4F370
:104D300008042344F3610020BDE8F0810220BDE8AF
:104D4000F0810220BDE8F0810220BDE8F081012061
:104D5000BDE8F0810220BDE8F0810220BDE8F081CD
:104D60000220BDE8F08100BF2DE9F041074606684A
:104D7000884629B9F5687DB173699D420ED20EE06F
:104D8000FFF72EFF012846D9B0F1FF3F51D07369DC
:104D900098424ED3454602E0012500E001252C460D
:104DA000013473699C4202D3012D37D90224214674
:104DB0003846FFF715FF38B1012832D0B0F1FF3F78
:104DC00031D0AC42ECD130E04FF0FF3221463046DA
:104DD000FFF782FE034640B9B8F1000F05D0224626
:104DE00041463046FFF778FE034673B9F4603369F5
:104DF0007269023A934201D2013B3361337943F045
:104E0000010333712046BDE8F081012B10D14FF032
:104E1000FF30BDE8F0810120BDE8F0810020BDE851
:104E2000F081BDE8F081BDE8F0810020BDE8F081AF
:104E30000120BDE8F08100BFF8B50E4604680129E5
:104E40002CD90746114663699E4229D22AB14FF0F8
:104E5000FF322046FFF740FE20BB31463846FFF7C1
:104E6000BFFE0546F8B101281FD0B0F1FF3F1ED0AC
:104E7000002231462046FFF72FFED0B92369626930
:104E8000911E8B4205D201332361237943F0010344
:104E900023712E469542E0D30020F8BD0220F8BDD4
:104EA0000220F8BDF8BD0020F8BD0220F8BD0120A9
:104EB000F8BDF8BD2DE9F8430668036903F1200544
:104EC0008369002B6DD0B5F5001F6DD2884604466E
:104ED000C5F30807002F5DD101338361416941B9F2
:104EE0003389B3EB551F55D8002383610420BDE8F7
:104EF000F8837389013B13EA55234BD1FFF770FE0A
:104F00008146012853D9B0F1FF3F53D073699842CD
:104F100039D3B8F1000F04D10023A3610420BDE808
:104F2000F88361692046FFF71FFF8146002844D0BF
:104F3000012845D0B0F1FF3F45D03046FFF7E0FBF8
:104F4000002843D14FF40072002106F13000FFF732
:104F5000BDFA49463046FFF7D7FAF0624FF0000835
:104F60000AE00123F3703046FFF7CAFB88BB08F163
:104F70000108F36A0133F36273899845F1D3F36A48
:104F8000C8EB0303F362C4F8149049463046FFF7B8
:104F9000BBFAA061256130363E44E6610020BDE8E1
:104FA000F8830420BDE8F8830420BDE8F8830220DC
:104FB000BDE8F8830120BDE8F8830720BDE8F88349
:104FC0000220BDE8F8830120BDE8F8830120BDE898
:104FD000F8830120BDE8F88370B504460668002117
:104FE000FFF768FEE8B9A1693046FFF7B3FB054655
:104FF000C0B9E0690378B3B1C37A03F03F03A3718A
:10500000C37A13F0080F05D10B2204F12001FFF73A
:1050100063FA50B100212046FFF74CFF0028E2D090
:1050200070BD70BD70BD042070BD284670BD00BF4E
:1050300030B583B004460191056801E00133019366
:10504000019B1A782F2AF9D05C2AF7D00022A2609F
:105050001B781F2B08D8802384F82B30114620465C
:10506000FFF728FE034627E001A92046FFF77CFA58
:10507000034608BB2046FFF7AFFF94F82B200346FA
:1050800028B1042818D112F0040F12D014E012F045
:10509000040F11D1A37913F0100F0CD005F13001DA
:1050A0002369C3F3080319442846FFF739FAA060BF
:1050B000DAE7052300E00523184603B030BD00BF42
:1050C000F8B504460F4606680021FFF7F3FD0246D7
:1050D000B8B90025A1693046FFF73CFB024680B90C
:1050E000E3691B78E52B00D01BB90135BD4201D126
:1050F00007E0002501212046FFF7DCFE02460028DC
:10510000E8D0042A00D107221046F8BD70B5044645
:1051100006680121FFF7D4FF054690B9A169304622
:10512000FFF718FB054660B920220021E069FFF770
:10513000CDF90B2204F12001E069FFF7BDF901234D
:10514000F370284670BD00BF70B50446FFF7D8FA6B
:105150000546002837D12378032B2DD12379012B45
:105160002AD104F130064FF4007200213046FFF7D7
:10517000ADF94AF6552104F22E20FFF78FF91349B5
:105180003046FFF78FF9124904F50570FFF78AF9E9
:10519000216904F50670FFF785F9E16804F50770E9
:1051A000FFF780F9E2690132E2620123314660785B
:1051B000FFF7B8F800232371002211466078FFF74B
:1051C00001F900B10125284670BD00BF525261416E
:1051D0007272416110B584B001900091144604A828
:1051E00040F8041DFFF748FA002816DB0E4B53F871
:1051F00020300BB100221A70019B0BB100221A70F3
:10520000019B094A42F820304BB1012C09D1002200
:1052100001A96846FFF7F6FA04E00B2002E000203F
:1052200000E0002004B010BD4C3200202DE9F04316
:105230008FB00191002800F0E0800546164602F08C
:105240003F073A4602A901A8FFF7DCFA0446002806
:1052500040F0CE80029B0393019903A8FFF7E8FE7C
:10526000044620B99DF93730002B00DA062416F0E9
:105270001C0F53D044B1042C03D103A8FFF746FF01
:10528000044647F008070BE09DF8123013F0110FA9
:1052900003D116F0040F02D102E0072400E0082435
:1052A000002C4BD117F0080F48D0574E31460A98C2
:1052B0000E30FFF7F7F831460A981630FFF7F2F88C
:1052C00020220A9BDA72029EDDF828804146304691
:1052D000FFF726F98146002241463046FFF732F9B2
:1052E00000210A981C30FFF7DDF80122029BDA70DA
:1052F000B9F1000F22D0029BDE6A0022494603A8C2
:10530000FFF79AFD0446C8B931460298FFF722FA22
:10531000044609F1FF33029AD3600FE074B99DF897
:10532000123013F0100F06D116F0020F06D013F052
:10533000010F02D102E0042400E007244CB917F069
:10534000080F01D047F04007029BDB6A2B620A9BE3
:105350006B62002C4CD1029EDDF82880414630461D
:10536000FFF7DEF8A86008F11C00FFF78BF8E86093
:105370002E60F388AB802F7400216974E961696144
:1053800005F128084FF400724046FFF79FF817F028
:10539000200F2DD0EE685EB36E61029B5F897F02A5
:1053A000A9680BE02846FFF71BFC0146012800D83E
:1053B0000224B1F1FF3F00D10124F61B0CB9BE421B
:1053C000F0D8A961A4B9C6F308038BB1029F38468F
:1053D000FFF79AF848B100EB5622EA6101234146F3
:1053E0007878FEF755FF10B902E0022400E00124AE
:1053F0002CB100232B60204602E0092000E020466B
:105400000FB0BDE8F08300BF000021482DE9F04F48
:1054100085B00446884616461F4600233B6001902F
:1054200003A9FFF753F9002840F0C180607C0028F1
:1054300040F0BF80237C13F0020F00F0B980636955
:10544000F342C0F0AB80DE43A8E06369C3F3080217
:10545000002A40F08380039AB2F80A9009F1FF39DC
:1054600019EA53291DD133B9A06840B90021019828
:10547000FFF77AFC03E0A1690198FFF775FC0028AB
:1054800000F08F80012802D10220607491E0B0F119
:10549000FF3F02D1012060748BE0A061A36803B9D3
:1054A000A06094F91030002B0FDA0123E26904F1B7
:1054B000280103984078FEF735FF10B10120607491
:1054C00077E0237C03F07F032374DDF80CB0A1693F
:1054D0005846FFF719F8824610B90220607468E058
:1054E000CA44750A25D009EB0503BBF80A2093428C
:1054F00001D9C9EB02052B46524641469BF80100F3
:10550000FEF710FF10B10120607452E0E169CAEBB0
:1055100001018D420BD94FF4007208EB412104F1D7
:105520002800FEF7C9FF237C03F07F0323746D027C
:1055300027E0E3699A450FD06269E3689A420BD28B
:105540000123524604F128019BF80100FEF7A0FE5A
:1055500010B1012060742CE0C4F81CA06369C3F38F
:105560000803C3F50075AE4200D2354604F12800A9
:105570002A4641461844FEF79FFF237C63F07F03D1
:105580002374A84463692B446361E268934238BF83
:105590001346E3603B682B443B60761B002E7FF490
:1055A00054AF237C43F040032374002001E000E06B
:1055B000072005B0BDE8F08F30B583B0044601A9DF
:1055C000FFF784F800283CD1227C12F0400F39D03C
:1055D00012F0800F0CD00123E26904F12801019838
:1055E0004078FEF79FFE70BB237C03F07F0323749B
:1055F000216A0198FFF7AEF838BB656AEB7A43F091
:105600002003EB72A26829462068FEF79BFFE16841
:1056100005F11C00FEF746FF0D4905F11600FEF7E7
:1056200041FF002105F11200FEF738FF0122019B26
:10563000DA700198FFF788FD237C23F04003237480
:1056400003E002E001E00120FFE703B030BD00BF4E
:105650000000214810B582B00446FFF7ADFF0346B5
:1056600038B901A92046FFF731F8034608B90022EE
:105670002260184602B010BD074A084BC2F8143524
:10568000074B5B7C013B1B0443F0807343F020031A
:10569000C2F81835704700BF001000400600030034
:1056A000A40000200749084BC1F81435074B5B7C68
:1056B0005A1E030243EA0243184340F08070C1F8C7
:1056C000180570470010004000010100A4000020F0
:1056D000024B9A7A024BC3F80C2570471033002016
:1056E000001000400D4B1B7A0D4AC2F81035032BF9
:1056F00012D8DFE803F006020A0E3022094B1A60C6
:1057000070474022074B1A607047FA22054B1A6017
:1057100070474022034B1A60704700BF10330020CF
:10572000001000400C330020064B1B782BB1012BDE
:1057300006D1054A054B1A607047054A034B1A60AB
:10574000704700BF1033002079560000A8320020B7
:10575000A55600000D4B5B7A0D4AC2F83435022B7A
:1057600008D113464FF6FF72C3F83C25094AC3F827
:1057700038257047012B07D1054BFF22C3F83C2584
:1057800040F20712C3F83825704700BF10330020DD
:10579000001000402110010008B5FFF799FFFFF746
:1057A000A1FFFFF7C1FFFFF7D5FF034B1B68034ABB
:1057B000D07C984708BD00BFA832002010330020DD
:1057C000044A0023136253629362034A13625362D2
:1057D00093627047DC3200208035002008B5FFF767
:1057E000EFFF002309E003EBC30203EB82020B4946
:1057F0000A440B4941F823200133072BF3DD002332
:1058000009E003EBC30203EB820206490A4406499E
:1058100041F823200133072BF3DD08BD5434002069
:10582000DC32002028330020803500200A4B9B6AA0
:105830008BB10221094AC2F88010074A013B9362EA
:10584000536A01335362072B02D90022024B5A627A
:105850000222024B1A607047DC32002000E100E0B7
:10586000054B0422C3F810250022C3F8082540F296
:105870000222C3F80022704700A00040114B124AD8
:10588000C3F8602502F50F42C3F86425A2F50E4265
:10589000FC3AC3F8682502F50F42C3F86C2502F5FF
:1058A0009E72C3F87025A2F51142303AC3F87425F0
:1058B00002F511423432C3F87825044AC3F87C2536
:1058C000704700BF00F00140001100400010004090
:1058D00010B5194840F21313C0F80032174B1A687C
:1058E000174BC3F8402517498A89823AC3F84425E3
:1058F0000122DA600022C3F84021C3F8442103F5F5
:10590000A8334FF4E054C3F804454FF40054C3F8EF
:105910000845C0F80C210B781BB90B4B1B681046CF
:105920009847054B094AC3F80425094A094B1A60F0
:105930000322094B1A7010BD001000400C330020E8
:1059400000A0004010330020A83200205432002074
:10595000E55B0000AC350020A03200200B4B1B782B
:1059600063B168B110B40A4B0222C3F88020094920
:105970000C680460002008601A6003E0082070478B
:105980000E2070475DF8044B704700BF5032002076
:1059900000E100E00833002010B50122484B1A60F6
:1059A000484B5A6A53F82210474B1960474B1B78F3
:1059B00013B1012B23D061E0454B1B680878984751
:1059C000414B19680B7943480370002343700A78F0
:1059D0000531023000F060FE3F4B40F21B12C3F86D
:1059E00000221122C3F80423384BDA893B4B1A609A
:1059F0003B4A3C4B1A6002223B4B1A703EE0CB788C
:105A000023B1324B1B7D1BB9012202E0012200E0D1
:105A1000002208782F4B18700B795B005BB214469C
:105A20000AB1002200E001222A48134343700A7899
:105A30000531023000F030FE94B1274B40F21B12CA
:105A4000C3F800221122C3F80423204BDA89234B28
:105A50001A60234A234B1A600222234B1A700DE06E
:105A60001D4B40F21312C3F800221022C3F8042386
:105A70001E4A1C4B1A6001221B4B1A70124B1A68EB
:105A80005178154BC3F82C155278012101FA02F216
:105A9000C3F83025164AD27CC3F808250D4AC3F84E
:105AA0000425144A0220C2F8800110600022C3F8C5
:105AB0000421C3F80821C3F81021196010BD00BFEC
:105AC00050340020DC3200207C35002010330020D0
:105AD000A832002078320020001000409C320020C4
:105AE000D1580000AC350020A0320020F95A000047
:105AF000A400002000E100E008B50D4A136843F05F
:105B000001031360FFF792FE0A4B9B6A43B9002220
:105B1000094B1A704FF48012084BC3F8002108BDDE
:105B20004FF48012054BC3F80021FFF735FF08BD85
:105B300008330020DC320020A032002000E100E029
:105B400070B5234B9B6A072B3ED8224B1B78012B49
:105B500009D1214B1B78202B38D81D4A146A52F8E2
:105B60002420137010E01B4B5B7833B9184B1A6A72
:105B700053F8223000221A7006E0154B1A6A53F8C7
:105B80002230144AD27C1A700E460546104C236A05
:105B900054F8230002781149053000F07DFD236A96
:105BA00054F8232055700E49D1F84815917016719C
:105BB00001332362072B01D900222262044A936A2F
:105BC00001339362012070BD002070BD002070BDC4
:105BD000803500201033002054320020563200203F
:105BE0000010004010B54FF4E052494BC3F80825AF
:105BF000A3F5F033D3F80C31002B46D0454BD3F846
:105C00000034002B41D00122434B5A604FF4005224
:105C100003F5A833C3F80825404A136843F001038D
:105C200013603F4CE3893F4A12689B1A01333E4A96
:105C30001360FFF7FBFD23787BB13C4B1B7863B10E
:105C4000344BD3F82C050021C0B2FFF779FF20B107
:105C5000324A136843F004031360354B9B6A1BB14F
:105C60002F4B1B7C012B08D10022324B1A704FF4B2
:105C70008012314BC3F8002110BD4FF480122E4B1F
:105C8000C3F80021FFF788FE10BD264A1368591E8D
:105C90001160DBB90122204B5A604FF4005203F52A
:105CA000A833C3F808251E4BDB8901331E4A136055
:105CB0001A4A136843F00203136000221D4B1A7046
:105CC0004FF480121C4BC3F8002110BD114C40F260
:105CD0001B13C4F80032194B1A68194B1B68107853
:105CE0009847184BC4F80435174A184B1A6002221B
:105CF000104B1A70084B01221A604FF40051044AED
:105D0000C2F80415D3F844310BB10122226010BD52
:105D100000F001400010004000A0004008330020C7
:105D2000103300209C3200205034002054320020D8
:105D3000DC320020A032002000E100E07C350020B1
:105D4000A832002078320020D1580000AC35002065
:105D5000006890FAA0F000BA704700BF08B5FFF7DE
:105D6000F7FF00BA08BD00BF38B5044610F0010FB8
:105D700005D01048FFF7F2FF0F4BC3F81C0514F0D5
:105D8000020F05D00D48FFF7E9FF0B4BC3F82005C4
:105D900014F0040F0DD0074D05F10800FFF7D8FFF0
:105DA000054CC4F8240505F10C00FFF7D1FFC4F839
:105DB000280538BDA400002000100040A8000020E5
