:1000000000000120D9250000012600000326000081
:100010000526000007260000092600000000000059
:100020000000000000000000000000000B2600009F
:100030000D260000000000000F2600001126000021
:1000400013260000252100006D060000590600005F
:10005000E911000013260000132600008D12000095
:10006000FD090000132600001326000013260000DF
:10007000132600001326000013260000132600009C
:10008000132600001326000013260000132600008C
:100090008D22000013260000132600001326000006
:1000A000132600001326000013260000132600006C
:1000B00013260000132600000000000000000000CE
:1000C000132600001326000013260000132600004C
:1000D0001326000013260000132600000000000075
:1000E0000000000000000000000000000000000010
:1000F0000000000000000000000000000000000000
:1001000000000000000000000000000000000000EF
:1001100000000000000000000000000000000000DF
:1004000010B5054C237833B9044B13B10448AFF34E
:1004100000800123237010BDAC000020000000000C
:10042000A82A0000084B10B51BB108490848AFF3D3
:1004300000800848036803B910BD074B002BFBD0B0
:10044000BDE81040184700BF00000000B0000020C9
:10045000A82A0000A800002000000000154B002B77
:1004600008BF134B9D46A3F5803A00218B460F46EB
:100470001348144A121A00F065F80F4B002B00D0F5
:1004800098470E4B002B00D0984700200021040015
:100490000D000D48002802D00C48AFF3008000F09A
:1004A0002BF82000290001F0FFF800F011F800BF40
:1004B0000000080000000120000000000000000013
:1004C000AC00002014050020000000000000000027
:1004D00008B5074B044613B10021AFF30080054B6C
:1004E0001868836A03B19847204600F033F800BFCC
:1004F000000000004C2A000070B50E4B0E4CE41AB0
:10050000A41000251E46A54204D056F82530984771
:100510000135F8E702F08EFA084C094BE41AA410F2
:1005200000251E46A54204D056F8253098470135CF
:10053000F8E770BDA0000020A0000020A40000206B
:10054000A000002002440346934202D003F8011B9E
:10055000FAE77047FEE700BF30B583B0044B5D6932
:100560000024009423460A462146A84703B030BD24
:10057000C800002000B585B00021ADF8041002913C
:10058000039001AA44F2010000F004F805B05DF800
:1005900004FB00BF08B508490120FFF7DDFFBFF3EA
:1005A0004F8F0649CA6802F4E062054B1343CB60E3
:1005B000BFF34F8F00BFFDE7502A000000ED00E0C1
:1005C0000400FA05002806DA00F00F024901C9B25A
:1005D0000C4B995407E04901C9B200F1604303F59F
:1005E000614383F80013420900F01F00012303FA5E
:1005F00000F0054B02F1600143F8210043F82200AE
:10060000704700BF14ED00E000E100E008B5827E15
:10061000FF2A05D0012393404FF0A042C2F80835CD
:1006200000234376037150F8043B984708BD00BF90
:10063000D0F8183173B100B583B00022C0F818218A
:10064000D0F818310193019B0846FFF7DFFF03B094
:100650005DF804FB704700BF08B502490248FFF788
:10066000E7FF08BDE40000200030004010B58EB068
:10067000914B1B7F002B00F0A380904BD3F82431CB
:10068000EBB18E4B0022C3F82421D3F82411029140
:10069000029902218DF82810D3F88014C3F8801431
:1006A0000D91D3F83C358DF83030834BD9680B91E0
:1006B000DA751A765A6819680AA890473EE07F4BA7
:1006C000D3F81031002B39D07C4B0022C3F8102115
:1006D000D3F810210392039AD3F83C35DBB2764A63
:1006E000D27D93422AD1744A127ECAB1724AD4682A
:1006F0007248D0F8001221F02001C0F80012117EDB
:10070000D1751169D1600021117601218DF8281071
:100710008DF830300B94536811680AA898470DE0A3
:10072000654A0021D175D16801208DF828008DF827
:1007300030300B91536811680AA898475F4BD3F883
:100740004431D3B15D4B0022C3F84421D3F8443186
:100750000193019B584BDB7D7BB1574BDA75574AB0
:10076000D2F83C15DA6801208DF828008DF8301099
:100770000B925A6819680AA89047504BD3F8203159
:10078000002B00F012814D4B0022C3F82021D3F83A
:1007900020310093009B484B9B7D002B00F005818E
:1007A000464BD3F84C358DF828208DF83030424B2D
:1007B00099680B919A755A6819680AA89047F4E0ED
:1007C0003E4BD3F8043313F4007F2CD03B4BD3F8CB
:1007D000243143B3394B0022C3F82421D3F8242118
:1007E0000992099A4FF40172C3F80823324B9B7E99
:1007F00013B90122314B5A6002238DF828302F4A59
:10080000D2F88034C2F880340D932B4BDA7D8DF80A
:100810003020DA680B920022DA751A765A68196865
:100820000AA8904766E0254BD3F8043313F0040F71
:1008300060D0224BD3F80831002B5BD01E4BDB7D00
:1008400053B91E4B0022C3F80821D3F8082108929F
:10085000089AD3F8183512E018490023C1F8083176
:10086000D1F808310793079B134AD068537EDBB257
:10087000D1F81815C154537E0133DBB253760E4BB9
:10088000DA7D5B7EDBB29A4234D10B4B1A7EBAB171
:10089000D968587EDA751A69DA6000221A765A76B3
:1008A00001228DF828208DF830000B915A681968C4
:1008B0000AA890471EE000BF04010020002000406D
:1008C0003B4B9B7E13B901223A4B5A604FF40172A5
:1008D000384BC3F80823364B0022DA75597EDA68A4
:1008E00001208DF828008DF830100B925A68196895
:1008F0000AA890472F4BD3F81C31002B31D02C4A3B
:10090000938A9BB2927D934214D22A490023C1F864
:100910001C31D1F81C310693069B254A9068938AB6
:100920009BB2C05C938A9BB201339BB29382C1F8A5
:100930001C0516E01F4B0022C3F81C21D3F81C3104
:100940000593059B1A4B9B7D5BB18DF828208DF894
:100950003030174B99680B919A755A6819680AA834
:100960009047144BD3F84431FBB1124B0022C3F82B
:100970004421D3F844310493049B0D4B9B7E13B167
:1009800001220C4B1A600A4BDB7D73B1084B00222D
:10099000DA75597EDA6801208DF828008DF830105C
:1009A0000B925A6819680AA890470EB010BD00BF94
:1009B0000401002000200040F0B583B005460F463A
:1009C0001646002416E004F15000800080B24FF477
:1009D0008033A3402A585AB1D5F80423134207D0D4
:1009E00000232B502B580193019B3B687968984753
:1009F0000134E4B2B442E6D303B0F0BD08B504223A
:100A000002490348FFF7D8FF08BD00BF24010020BA
:100A100000800040034610F0010F01D1032001E0E7
:100A20004FF4024013F0020F01D048F2012013F0FE
:100A3000040F01D048F20220704700BF10B58AB001
:100A400003460C46D0F82421AAB10022C0F8242184
:100A5000D0F824210192019AD0F804215AB98A6869
:100A6000C0F8082302228A608A68C0F804230122A1
:100A70000262426192E0D3F80421002A43D00022AE
:100A8000C3F80421D3F804210292029A04F10C0263
:100A900007CA0DF1280E0EE9070094F82320B2B121
:100AA000217B012903D1D3F83C25D2B202E0D3F84F
:100AB0004C25D2B28DF81E20022903D1D3F83C2553
:100AC000D2B202E0D3F84C25D2B28DF81F2000221A
:100AD000C3F86021D3F8601104910499C3F85C2134
:100AE000D3F85C210392039A94F8252012B194F86C
:100AF0002320AAB30022C3F80022A2604FF0FF32E5
:100B0000C3F808232CE00022C3F84821D3F8482179
:100B10000592059A227B8AB904F10C0207CA0DF1ED
:100B2000280E0EE9070094F82520CAB9C3F8002260
:100B3000A2604FF0FF32C3F8082311E04FF40072B7
:100B4000C3F8002240F20222A2604FF0FF32C3F845
:100B50000823A268C3F8042301229A601A621DE0E8
:100B6000D3F8C424C3F8C42412F0020F03D0012325
:100B70008DF8183009E012F0040F03D002238DF82D
:100B8000183002E000238DF8183094F825300BB9A6
:100B900084F824302368616806A898470AB010BD1D
:100BA000F0B502684FF0A04302F5E07240F20C612C
:100BB00043F82210426802F5E07243F822100168FF
:100BC000012202FA01F1C3F8081541688A40C3F80E
:100BD0000825026802F5E07240F20D6143F8221028
:100BE000426802F5E07243F82210274B1A6804238A
:100BF000264900BF00BF00BF00BF00BF00BF00BF4D
:100C000000BF8A422FD000BF00BF00BF00BF00BF9F
:100C100000BF00BF00BF00BF00BF00BF00BF00BFDC
:100C200000BF00BF00BF00BF00BF00BF00BF00BFCC
:100C300000BF00BF00BF00BF00BF00BF00BF00BFBC
:100C400000BF00BF00BF00BF00BF00BF00BF00BFAC
:100C500000BF00BF00BF00BF00BF00BF00BF00BF9C
:100C600000BF00BF00BF013BC3D100219CE0426830
:100C70004FF0A043D3F81035D34013F0010F07D045
:100C8000002940F09480F0BD9C0000200024F40076
:100C90000368012202FA03F34FF0A046C6F80C35B0
:100CA000694D2F68694C04239E4600BF00BF00BFFA
:100CB00000BF00BF00BF00BF00BFA7422FD000BFD2
:100CC00000BF00BF00BF00BF00BF00BF00BF00BF2C
:100CD00000BF00BF00BF00BF00BF00BF00BF00BF1C
:100CE00000BF00BF00BF00BF00BF00BF00BF00BF0C
:100CF00000BF00BF00BF00BF00BF00BF00BF00BFFC
:100D000000BF00BF00BF00BF00BF00BF00BF00BFEB
:100D100000BF00BF00BF00BF00BF00BF00BFBEF1EB
:100D2000010EC2D10768BA40C6F808252A6800BF7C
:100D300000BF00BF00BF00BF00BF00BF00BFA24296
:100D40002FD000BF00BF00BF00BF00BF00BF00BF6B
:100D500000BF00BF00BF00BF00BF00BF00BF00BF9B
:100D600000BF00BF00BF00BF00BF00BF00BF00BF8B
:100D700000BF00BF00BF00BF00BF00BF00BF00BF7B
:100D800000BF00BF00BF00BF00BF00BF00BF00BF6B
:100D900000BF00BF00BF00BF00BF00BF00BF00BF5B
:100DA00000BF013BC3D1013108297FF760AF426822
:100DB000012303FA02F24FF0A041C1F80C25224AA8
:100DC00014680422214D00BF00BF00BF00BF00BF58
:100DD00000BF00BF00BFAC422FD000BF00BF00BFAC
:100DE00000BF00BF00BF00BF00BF00BF00BF00BF0B
:100DF00000BF00BF00BF00BF00BF00BF00BF00BFFB
:100E000000BF00BF00BF00BF00BF00BF00BF00BFEA
:100E100000BF00BF00BF00BF00BF00BF00BF00BFDA
:100E200000BF00BF00BF00BF00BF00BF00BF00BFCA
:100E300000BF00BF00BF00BF00BF013AC3D142687E
:100E40009340C1F80835F0BD9C0000200024F40058
:100E5000F8B5047904EB8406F500264E354495F880
:100E60002260002E44D10D460646224FA1002144A7
:100E7000C80039183A504B6000238B6081F8253048
:100E800081F82430AB7B81F827306B7B13B1284687
:100E9000FFF786FE2B684FF0A04203F5E07340F2A7
:100EA0000C6142F823106B6803F5E07342F82310DD
:100EB000336829686A68C3F80815C3F80C25AA685E
:100EC000C3F8242504EB8402D3000A4AD3582BB17B
:100ED0003068297B40F30730FFF774FB04EB840490
:100EE000E300044A1344012283F822200020F8BDC5
:100EF0000820F8BD30010020037902680621C2F8FD
:100F0000001503EB8303DA00024B1A44022382F834
:100F10002230704730010020F0B589B003799B4F33
:100F200003EB8303DC0007EB040C06684B6803F05B
:100F30006043B3F1005F40F021810D4696464FF0CB
:100F4000FF33C6F808339CF8243013F0FF0F05D0A8
:100F5000DCF80830C6F80433112014E112F0140F45
:100F60000CBF012300238CF824300CF10C0307C9BB
:100F700083E80700CEF300138CF825306B78C6F8B1
:100F800088350023C6F80431D6F804210592059A65
:100F9000C6F82431D6F824310693069B1EF0010FC3
:100FA00003D00123C6F8503502E00023C6F85035BF
:100FB0001EF0020F03D00123C6F8403502E00023E3
:100FC000C6F840352B78032B00F2A080DFE803F051
:100FD00060894102AB6803F06043B3F1005F40F009
:100FE000CF804FF48073C6F800326A68AB78C6F8D9
:100FF0004425C6F848350023C6F85031D6F85021AC
:101000000292029AC6F86031D6F860210392039AE0
:10101000C6F84831D6F848310493049B0123336263
:10102000B360D6F85031002BFBD00020C6F8500139
:10103000D6F850310193019BAA68EB78C6F8442595
:10104000C6F84835524BCCF808304FF4827208236A
:1010500060E06A68AB78C6F84425C6F84835AB68E6
:1010600003F06042B2F1005F40F08C80EA78C6F88D
:101070003435C6F838254FF48453C6F8003240F2B0
:101080000223CCF808304FF482720823002041E09C
:101090006A68AB78C6F84425C6F848351EF0200FBC
:1010A00010D04FF48073C6F80032394BCCF80830BA
:1010B0000023C6F84831D6F848310093009B4FF41E
:1010C000A47209E04FF40073C6F8003240F2022324
:1010D000CCF808304FF482720123336208230020D9
:1010E00018E06A68AB78C6F83425C6F838354FF48E
:1010F0008053C6F8003240F20223CCF808300123B6
:1011000033624FF482720023184603E04FF4827278
:10111000082307201EF0080F04D12978032901D0E5
:101120000121F1503B59D3B11EF0040F03D04FF40D
:101130000073CCF80830DCF80830C6F8043322E03D
:10114000D6F824315BB10023C6F82431D6F8243117
:101150000793079B0123336273614FF48272B35884
:10116000002BEDD0D6F8C434C6F8C43400228CF875
:10117000242043B11846FFF74DFC04E0102002E0A4
:10118000102000E0102009B0F0BD00BF30010020A9
:101190000002040030B585B09DF820500024019471
:1011A00003948DF805108DF8063002920DB12022BF
:1011B00000E0002201A9FFF7AFFE05B030BD00BF7F
:1011C00030B585B000240194039401258DF80450B6
:1011D0008DF805108DF806300292224601A9FFF71E
:1011E0009BFE05B030BD00BF08B503494FF040205D
:1011F000FFF724FC08BD00BF300100200378BBB915
:1012000053B9027942B90B4B1B7813F0FF0F0FD182
:101210000122084B1A70704753B90379012B07D18B
:10122000054B1B7813F0FF0F02D10122024B1A70FD
:10123000704700BF7D0100209C01002008B50378A5
:10124000012B02D0022B03D008BD01F047F908BDE5
:101250000B4801F0C9F80028FAD0094B5B79FF2B45
:1012600008D10122074B1A7007480023437101F08F
:101270003FF808BDEE2B02D1034801F039F808BD54
:10128000580100209D01002060000020044BD3F88D
:101290000C31002BFAD00022014BC3F80421704717
:1012A00000700040F0B4244880240460C0F88041FD
:1012B000224B0122C3F8F025C3F810250022C3F801
:1012C00014254FF40431C3F818150225C3F820552E
:1012D000C3F82425C3F828150426C3F83065C3F8DD
:1012E0003425C3F838150526C3F84065C3F84425EE
:1012F000C3F848150626C3F85065C3F85425C3F84B
:1013000058150726C3F86065C3F86425C3F8681547
:101310000827C3F87075C3F87425C3F87815C3F8A7
:10132000F825074AC3F82C26C3F83066C3F80453DF
:101330000460F0BC704700BF00E100E000700040B6
:10134000800100200122024BC3F80025704700BF36
:101350000070004008B50122074B1A60064BD3F815
:101360000031002BFAD0044B0022C3F800210122E7
:101370005A60FFF78BFF08BD0070004000B583B0D6
:1013800000220A4B1A70012300930B4602461921D2
:101390000748FFF7FFFE08B1FFF7ECF8034B1B7897
:1013A00013F0FF0FFAD003B05DF804FB7D010020BD
:1013B000A02A000010B582B00C4602AB03F8010D64
:1013C00001211846FFF7DAFF0022094B1A70234665
:1013D000084A19210848FFF7F3FE08B1FFF7CAF8D9
:1013E000034B1B7813F0FF0FFAD0024802B010BD78
:1013F0009C010020A0010020A02A000010B582B0AE
:10140000164B1B88ADF80430022101A8FFF7B6FF88
:1014100020238DF8043077238DF80530022101A8B0
:10142000FFF7ACFF00248DF804408DF80540022141
:1014300001A8FFF7A3FF01238DF804308DF80540C4
:10144000022101A8FFF79AFF02218DF804108DF800
:10145000054001A8FFF792FF02B010BD682A000006
:1014600008B50621A820FFF7A5FF08BD30B587B055
:1014700048B32C4CA388ADF80430022101A8FFF733
:101480007DFF21238DF8083000258DF809500221B9
:1014900002A8FFF773FF2389ADF80C30022103A8DF
:1014A000FFF76CFF3A238DF810308DF811500221B0
:1014B00004A8FFF763FFA389ADF81430022105A843
:1014C000FFF75CFF2CE0184B1B88ADF804300221BD
:1014D00001A8FFF753FF38238DF8083000248DF85A
:1014E0000940022102A8FFF749FF21238DF80C30A3
:1014F0008DF80D40022103A8FFF740FF3A238DF835
:1015000010308DF81140022104A8FFF737FF39236E
:101510008DF814308DF81540022105A8FFF72EFF35
:1015200007B030BD682A00006C2A000000B585B005
:10153000002303930E2200920B2201924FF0CC72F3
:10154000029202228DF80C20274A69462748FFF7AD
:101550007FFC08B1FFF70EF82448FFF7CDFC244BC1
:101560001A6842F21073234900BF00BF00BF00BFDA
:1015700000BF00BF00BF00BF8A422FD000BF00BF26
:1015800000BF00BF00BF00BF00BF00BF00BF00BF63
:1015900000BF00BF00BF00BF00BF00BF00BF00BF53
:1015A00000BF00BF00BF00BF00BF00BF00BF00BF43
:1015B00000BF00BF00BF00BF00BF00BF00BF00BF33
:1015C00000BF00BF00BF00BF00BF00BF00BF00BF23
:1015D00000BF00BF00BF00BF00BF00BF013BC3D1C1
:1015E00005B05DF804FB00BFFD110000A02A00005B
:1015F0009C0000200024F4004FF080430022C3F838
:10160000002101221A604FF08043D3F80031002BF3
:10161000F9D0704730B58BB0204C206909906069D3
:10162000089006AB224652F8180F516803C36D4666
:1016300020340FCC0FC594E8030085E80300002395
:101640008DF8143020238DF8133001238DF80830E5
:101650008DF80130124B019304238DF80A3068464F
:1016600000F0C0FDA0B909A800F04EFF88B908A895
:1016700000F062FF70B9082106A800F075FF50B9AC
:10168000642000F097FF38B90122064B1A7003E07E
:1016900002E001E000E0FFE70BB030BD682A000087
:1016A0003D1200006000002010B584B0FFF7B2FFCB
:1016B00008B1FEF75FFFFFF79FFFFFF737FF01203D
:1016C000FFF7D4FEFFF79AFEFFF7ECFDFFF73AFEB7
:1016D00000F0C4FE08B1FEF74DFF204B1B7813F05D
:1016E000FF0FFAD0FFF736FEFFF7BAFE00230AE03D
:1016F0001B4A32F9131004AA1A440C1202F8104CB7
:1017000002F8081C0133062BF2DD002304E0C15C63
:10171000144A1A4451710133052BF8DD002308E007
:101720009A1D04A9194411F9101C0E480244517164
:101730000133062BF4DD002309E003F10D0204A9B7
:10174000194411F9081C0748024451710133062B52
:10175000F3DD2022034B1A70BFE700BF9D0100207C
:101760008001002060000020074A084BC2F81435B1
:10177000074B5B7C013B1B0443F0807343F0200369
:10178000C2F81835704700BF001000400600030083
:10179000880000200749084BC1F81435074B5B7CD3
:1017A0005A1E030243EA0243184340F08070C1F816
:1017B000180570470010004000010100880000205B
:1017C000024B9A7A024BC3F80C2570477402002032
:1017D000001000400D4B1B7A0D4AC2F81035032B48
:1017E00012D8DFE803F006020A0E3022094B1A6015
:1017F00070474022074B1A607047FA22054B1A6067
:1018000070474022034B1A60704700BF74020020EB
:101810000010004070020020064B1B782BB1012BFA
:1018200006D1054A054B1A607047054A034B1A60FA
:10183000704700BF74020020691700000C020020EE
:10184000951700000D4B5B7A0D4AC2F83435022B18
:1018500008D113464FF6FF72C3F83C25094AC3F876
:1018600038257047012B07D1054BFF22C3F83C25D3
:1018700040F20712C3F83825704700BF74020020F9
:10188000001000402110010008B5FFF799FFFFF795
:10189000A1FFFFF7C1FFFFF7D5FF034B1B68034A0A
:1018A000D07C984708BD00BF0C02002074020020C5
:1018B000044A0023136253629362034A1362536221
:1018C0009362704740020020E404002008B5FFF74F
:1018D000EFFF002309E003EBC30203EB82020B4995
:1018E0000A440B4941F823200133072BF3DD002381
:1018F00009E003EBC30203EB820206490A440649EE
:1019000041F823200133072BF3DD08BDB803002085
:10191000400200208C020020E40400200A4B9B6A55
:101920008BB10221094AC2F88010074A013B936239
:10193000536A01335362072B02D90022024B5A62C9
:101940000222024B1A6070474002002000E100E0D2
:10195000054B0422C3F810250022C3F8082540F2E5
:101960000222C3F80022704700A00040114B124A27
:10197000C3F8602502F50F42C3F86425A2F50E42B4
:10198000FC3AC3F8682502F50F42C3F86C2502F54E
:101990009E72C3F87025A2F51142303AC3F874253F
:1019A00002F511423432C3F87825044AC3F87C2585
:1019B000704700BF00F001400011004000100040DF
:1019C00010B5194840F21313C0F80032174B1A68CB
:1019D000174BC3F8402517498A89823AC3F8442532
:1019E0000122DA600022C3F84021C3F8442103F544
:1019F000A8334FF4E054C3F804454FF40054C3F83F
:101A00000845C0F80C210B781BB90B4B1B6810461E
:101A10009847054B094AC3F80425094A094B1A603F
:101A20000322094B1A7010BD001000407002002004
:101A300000A00040740200200C020020B801002029
:101A4000751D0000100500200402002010B5114C87
:101A500040F21313C4F800320F4B1B680F4AD07CBE
:101A600098470F4BC4F804350023C4F81031012304
:101A70002361084BD3F81031002BFAD0054B00221C
:101A8000C3F8102140F21712C3F8002201225A6055
:101A900010BD00BF001000400C02002074020020A6
:101AA000B801002010B50A4C40F21713C4F80032F8
:101AB000084B1B68084AD07C9847084BC4F804358B
:101AC000074A084B1A600422074B1A7010BD00BF6A
:101AD000001000400C02002074020020B801002019
:101AE000E11E000010050020040200200B4B1B78B3
:101AF00063B168B110B40A4B0222C3F880200949CF
:101B00000C680460002008601A6003E00820704739
:101B10000E2070475DF8044B704700BFB4010020F1
:101B200000E100E06C02002010B50122484B1A6071
:101B3000484B5A6A53F82210474B1960474B1B78A1
:101B400013B1012B23D061E0454B1B6808789847FF
:101B5000414B19680B7943480370002343700A789E
:101B60000531023000F05AFF3F4B40F21B12C3F820
:101B700000221122C3F80423384BDA893B4B1A6048
:101B80003B4A3C4B1A6002223B4B1A703EE0CB783A
:101B900023B1324B1B7D1BB9012202E0012200E080
:101BA000002208782F4B18700B795B005BB214464B
:101BB0000AB1002200E001222A48134343700A7848
:101BC0000531023000F02AFF94B1274B40F21B127E
:101BD000C3F800221122C3F80423204BDA89234BD7
:101BE0001A60234A234B1A600222234B1A700DE01D
:101BF0001D4B40F21312C3F800221022C3F8042335
:101C00001E4A1C4B1A6001221B4B1A70124B1A6899
:101C10005178154BC3F82C155278012101FA02F2C4
:101C2000C3F83025164AD27CC3F808250D4AC3F8FC
:101C30000425144A0220C2F8800110600022C3F873
:101C40000421C3F80821C3F81021196010BD00BF9A
:101C5000B403002040020020E004002074020020B1
:101C60000C020020DC0100200010004000020020D7
:101C7000C11900001005002004020020891C00008A
:101C80008800002000E100E008B50D4A136843F029
:101C900001031360FFF742FE0A4B9B6A43B900221F
:101CA000094B1A704FF48012084BC3F8002108BD8D
:101CB0004FF48012054BC3F80021FFF735FF08BD34
:101CC0006C020020400200200402002000E100E03D
:101CD00070B5234B9B6A072B3ED8224B1B78012BF8
:101CE00009D1214B1B78202B38D81D4A146A52F891
:101CF0002420137010E01B4B5B7833B9184B1A6A21
:101D000053F8223000221A7006E0154B1A6A53F875
:101D10002230144AD27C1A700E460546104C236AB3
:101D200054F8230002781149053000F077FE236A49
:101D300054F8232055700E49D1F84815917016714A
:101D400001332362072B01D900222262044A936ADD
:101D500001339362012070BD002070BD002070BD72
:101D6000E404002074020020B8010020BA01002021
:101D70000010004010B54FF4E052494BC3F808255D
:101D8000A3F5F033D3F80C31002B46D0454BD3F8F4
:101D90000034002B41D00122434B5A604FF40052D3
:101DA00003F5A833C3F80825404A136843F001033C
:101DB00013603F4CE3893F4A12689B1A01333E4A45
:101DC0001360FFF7ABFD23787BB13C4B1B7863B10D
:101DD000344BD3F82C050021C0B2FFF779FF20B1B6
:101DE000324A136843F004031360354B9B6A1BB1FE
:101DF0002F4B1B7C012B08D10022324B1A704FF461
:101E00008012314BC3F8002110BD4FF480122E4BCD
:101E1000C3F80021FFF788FE10BD264A1368591E3B
:101E20001160DBB90122204B5A604FF4005203F5D8
:101E3000A833C3F808251E4BDB8901331E4A136003
:101E40001A4A136843F00203136000221D4B1A70F4
:101E50004FF480121C4BC3F8002110BD114C40F20E
:101E60001B13C4F80032194B1A68194B1B68107801
:101E70009847184BC4F80435174A184B1A600222C9
:101E8000104B1A70084B01221A604FF40051044A9B
:101E9000C2F80415D3F844310BB10122226010BD01
:101EA00000F001400010004000A000406C02002043
:101EB0007402002000020020B4030020B8010020BA
:101EC000400200200402002000E100E0E0040020C5
:101ED0000C020020DC010020C119000010050020C8
:101EE00070B5664BD3F8003413B9FFF7AFFD70BD82
:101EF000634B9B6A072B02D9FFF7A8FD70BD5F4BB0
:101F0000D3F80844D3F80C245E4B33F824309A42BB
:101F10000BD15D4B5A785B4B03EB84039B78B3EB9F
:101F2000520F05D00125002604E00125002601E01E
:101F300000250126544B5A78524B03EB840150087C
:101F400088704E49D1F80C1423F824104F4B1B7D98
:101F500023B112F0010F03D0002302E0012300E0BF
:101F60000123002B70D040F21B12444BC3F8002217
:101F7000464B1B78002B4ED0012B56D1444B9B6A0D
:101F8000002B38D0424A516A52F8212050783B4AFF
:101F9000D2F8082490422ED13A4A02EB8402D27839
:101FA0007AB176B901313A4A5162072901D9002143
:101FB0005162013B364A9362364A136843F001038B
:101FC0001360304B03EB84030122DA70304B5A6A02
:101FD00053F82230304E3360304A126818789047F8
:101FE0003368194611F8052B2D4800F8022B1A7892
:101FF00000F014FD0AE0234B03EB84030026DE709F
:10200000264B1B6830469847254B1E701E4B5A784E
:10201000234B5A7009E0214B1B68002098471A4B4C
:102020001A781F4B1A7000225A7005221D4B1A7025
:10203000124BD3F80824C3F82C25194AC3F80425F9
:10204000194A1A4B1A6001E0FFF700FDA5B10B4BCE
:10205000D3F808040B4B03EB8404A178C0B2FFF75C
:1020600037FE48B10B4A136843F0040313604FF482
:1020700080120F4BC3F8002170BD00BF001000405C
:10208000E404002010020020B801002074020020A7
:10209000400200206C020020E00400200C0200201E
:1020A000DC01002004020020A51A00001005002019
:1020B00000E100E0006890FAA0F000BA704700BFAD
:1020C00008B5FFF7F7FF00BA08BD00BF38B50446F2
:1020D00010F0010F05D01048FFF7F2FF0F4BC3F8C7
:1020E0001C0514F0020F05D00D48FFF7E9FF0B4B5C
:1020F000C3F8200514F0040F0DD0074D05F10800BA
:10210000FFF7D8FF054CC4F8240505F10C00FFF7D4
:10211000D1FFC4F8280538BD880000200010004019
:102120008C00002008B5174BD3F800314BB1154B8C
:10213000D3F8043313F0010F03D00022114BC3F87E
:102140000021104BD3F80C314BB10E4BD3F80433B4
:1021500013F0080F03D000220A4BC3F80C21094BDF
:10216000D3F810316BB1074BD3F8043313F0100FD1
:1021700007D00022034BC3F81021034B1B6803B1A7
:10218000984708BD001000401005002010B54FF41E
:1021900070520E4BC3F8082500240D4B1C70FFF73E
:1021A00087FB242221460B48FEF7CCF90922214661
:1021B0000948FEF7C7F94FF48012084BC3F8802096
:1021C0000322074BC3F80022204610BD00F0014057
:1021D00004020020100200203402002000E100E090
:1021E0000010004000283DD070B505461F4B1B78FD
:1021F0001BB1FFF7CBFF002836D16A681C4B1A6071
:102200001C4E18222946304600F008FC00241A4BC8
:102210001C60242221461948FEF794F90922214620
:102220001748FEF78FF9FFF72FFBFFF74FFBFFF77C
:102230008FFBFFF79BFB737C03F003035B01114AE9
:1022400082F80133B37C03F003035B0182F814339B
:102250004FF4801313600C4B1C700122034B1A7057
:10226000204670BD0E20704770BD00BFB401002035
:1022700008020020740200206C02002010020020DE
:102280003402002000E100E00402002000B585B027
:10229000154B1B68029303A8FFF728FC08BB134BE0
:1022A0001B68F3B1039A12F0010F04D004A80022B6
:1022B00000F80C2D9847039B13F0020F06D004A8DA
:1022C000012300F80C3D094B1B689847039B13F052
:1022D000040F06D004A8022300F80C3D034B1B6832
:1022E000984705B05DF804FBB40300200802002005
:1022F00010B5364B1B78002B56D0002856D00278EC
:10230000531EDBB21F2B53D8314B1B781BB9304BFC
:10231000DB7C9A424ED82F4B9B6A072B4CD82C4B18
:102320005B782BB9C3781BB1294B1B7D002B45D0A3
:1023300004460222284BC3F88020264B186A252227
:10234000214653F8200000F069FB6278234B9B5C28
:10235000013323490B4003D5013B63F003030133F1
:102360001E498B541B4A136A52F823006478095D96
:10237000017101331362072B02D90022154B1A6237
:10238000144A936A013393620222134B1A60104B72
:102390005B78ABB90E4B1B7CA3B9124B1B789BB976
:1023A000FFF7C2FB002010BD082010BD0E2010BD9D
:1023B000092010BD092010BD042010BD062010BD4D
:1023C000002010BD002010BD002010BDB401002071
:1023D000740200204002002000E100E034020020EE
:1023E0000300008004020020194B1B784BB350B34C
:1023F000184B9B6A4BB310B50222174BC3F88020D1
:10240000144C636A54F823100A7802704B784370B6
:1024100091F9023083700B7903710531053000F0BA
:10242000FDFA636A01336362072B01D900226262FD
:10243000084A936A013B93620222074B1A6000200C
:1024400010BD082070470E2070470520704700BF60
:10245000B4010020E404002000E100E0184B1B78E8
:1024600063BB184B4FF0FF32C3F808230020C3F8BA
:1024700010011549154A116040F21712C3F80022E5
:102480001022C3F8042304210D4A1170104A917CD4
:10249000C3F83015D27CC3F808250E4AC3F80425CA
:1024A0000D4A0221C2F880111160C3F80401C3F87B
:1024B0000801C3F8100101225A60704711207047CB
:1024C0000402002000100040E11E00001005002062
:1024D00088000020B801002000E100E0074B1B78D5
:1024E00053B1074A0221C2F88010064B00209862BF
:1024F000186258621160704708207047B4010020CC
:1025000000E100E04002002008B5094B1B7853B9F8
:1025100058B101460422074800F080FA0120FFF775
:10252000D5FD002008BD112008BD0E2008BD00BF4C
:10253000040200208800002008B5094B1B7853B91D
:1025400058B101460422074800F068FA0220FFF75C
:10255000BDFD002008BD112008BD0E2008BD00BF34
:10256000040200208C00002038B5104B1B78B3B952
:10257000B8B1082917D80C4601460D4D224605F181
:10258000080000F04BFA2C74C4F10801FF2444FA4F
:1025900001F1A9740420FFF799FD002038BD112036
:1025A00038BD0E2038BD072038BD00BF0402002012
:1025B00088000020064B1B782BB97D2805D8054BD9
:1025C000D87400207047112070470720704700BF63
:1025D00004020020880000200649074A074B9B1A86
:1025E00003DD043BC858D050FBDC00F023F9FDF7B5
:1025F00035FF0000B42A000000000020AC000020DD
:10260000FEE7FEE7FEE7FEE7FEE7FEE7FEE7FEE7A2
:10261000FEE7FEE70B4B1B78062B0CD10A4B1B6821
:1026200013F00F0F09D1094B1B6803F0F003302B97
:1026300005D000207047002070470020704701201F
:10264000704700BFE00F00F0E40F00F0E80F00F06B
:102650000F4B1B78062B10D10E4B1B6813F00F0F7E
:102660000DD10D4B1B6803F0F003302B09D0402B2C
:1026700009D0502B09D0002070470020704700205F
:10268000704701207047012070470120704700BF4C
:10269000E00F00F0E40F00F0E80F00F00B4B1B78A8
:1026A000062B0CD10A4B1B6813F00F0F09D1094BF5
:1026B0001B6803F0F003302B05D00020704700208A
:1026C0007047002070470120704700BFE00F00F006
:1026D000E40F00F0E80F00F00F4B1B78062B10D131
:1026E0000E4B1B6813F00F0F0DD10D4B1B6803F041
:1026F000F003302B09D0402B09D0502B09D00020FB
:10270000704700207047002070470120704701206B
:1027100070470120704700BFE00F00F0E40F00F0A9
:10272000E80F00F00B4B1B78062B0CD10A4B1B68F3
:1027300013F00F0F09D1094B1B6803F0F003302B86
:1027400005D000207047002070470020704701200E
:10275000704700BFE00F00F0E40F00F0E80F00F05A
:102760000B4B1B78062B0CD10A4B1B6813F00F0F79
:1027700009D1094B1B6803F0F003302B05D0002072
:10278000704700207047002070470120704700BF4D
:10279000E00F00F0E40F00F0E80F00F00B4B1B78A7
:1027A000062B0CD10A4B1B6813F00F0F09D1094BF4
:1027B0001B6803F0F003502B05D000207047002069
:1027C0007047002070470120704700BFE00F00F005
:1027D000E40F00F0E80F00F00F4B1B78062B10D130
:1027E0000E4B1B6813F00F0F0DD10D4B1B6803F040
:1027F000F003302B09D0402B09D0502B09D00020FA
:10280000704700207047002070470120704701206A
:1028100070470120704700BFE00F00F0E40F00F0A8
:10282000E80F00F0014A024B1A6070470090D00395
:102830009C00002008B5FFF7EDFE10B16A4A6B4B13
:102840001A60FFF705FF28B1694B1B68C3F34233D9
:10285000684A1360FFF722FF20B1674AD36823F06C
:102860008073D360FFF738FF40B14FF08043002200
:10287000C3F80C21C3F81021C3F83825FFF752FF25
:1028800010B103225D4B1A60FFF76AFF58B10522B1
:102890005B4B1A60012278331A600022703B1A6089
:1028A0003F22043B1A60FFF779FF002846D04FF023
:1028B0008052D2F80414534BC3F82015D2F80814F0
:1028C000C3F82415D2F80C14C3F82815D2F8101444
:1028D000C3F82C15D2F81414C3F83015D2F8181414
:1028E000C3F83415D2F81C14C3F84015D2F82014DC
:1028F000C3F84415D2F82414C3F84815D2F82814A4
:10290000C3F84C15D2F82C14C3F85015D2F8301473
:10291000C3F85415D2F83414C3F86015D2F838143B
:10292000C3F86415D2F83C14C3F86815D2F8401403
:10293000C3F86C15D2F84424C3F87025FFF74CFF98
:1029400028B1314B1B6803F04F03304A1360304A03
:10295000D2F8883043F47003C2F88830BFF34F8F49
:10296000BFF36F8F4FF01023D3F80032002B05DB3D
:102970004FF01023D3F80432002B32DA0122254B1A
:10298000C3F80425234BD3F80034002BFAD01522CA
:102990004FF01023C3F800221E4BD3F80034002B55
:1029A000FAD015224FF01023C3F80422194BD3F8A4
:1029B0000034002BFAD00022164BC3F80425154B27
:1029C000D3F80034002BFAD0BFF34F8F1049CA68F8
:1029D00002F4E062104B1343CB60BFF34F8F00BF94
:1029E000FDE7FFF71FFF08BD0DF0ADBA74C007404B
:1029F000440200103C050040F0ED00E0A00500405E
:102A00001056004000C0004058020010E40E004084
:102A100000ED00E000E001400400FA0510B5431E9F
:102A20000A44914204D011F8014B03F8014FF8E732
:102A300010BD0000F8B500BFF8BC08BC9E4670474A
:102A4000F8B500BFF8BC08BC9E46704700000020E7
:102A50004150505F4552524F523A4552524F523AAE
:102A6000466174616C0D0A0023380000228000006A
:102A7000381500003B3F0000E7E7E7E7C2C2C2C2EB
:102A8000E7C2C3C4C5C6C7C80100000000000000FB
:102A900001020000FA000300000102200000000013
:0C2AA000004000400001000000000000A9
:082AAC00B0D9FF7F010000001A
:102AB4000000000000000000000000000000000012
:102AC4000000000000000000000000000000000002
:102AD40000000000000000000000000000000000F2
:102AE40000000000000000000000000000000000E2
:102AF40000000000000000000000000000000000D2
:102B040000000000000000000000000000000000C1
:102B140002000000000100000000000000000000AE
:102B240000000000000000000000000000000000A1
:102B34000000000000000000E7E7E7E7C2C2C2C2ED
:102B4400E7C2C3C4C5C6C7C80805FF020090D003C6
:0C2B540025040000010400000000000047
:04000003000025D9FB
:00000001FF
